:020000040800F2
:10000000B00400200101000863120008211100085B
:10001000611200086D010008611400080000000072
:100020000000000000000000000000004113000874
:100030006F0100080000000065120008431300086B
:100040001B0100081B0100081B0100081B01000820
:100050001B0100081B0100081B0100081B01000810
:100060001B0100081B0100081B0100081B01000800
:100070001B0100081B0100081B0100081B010008F0
:100080001B0100081B0100081B0100081B010008E0
:100090001B0100081B0100081B0100081B010008D0
:1000A0001B0100081B0100081B0100081B010008C0
:1000B0001B0100081B0100081B0100081B010008B0
:1000C0001B0100081B0100081B0100081B010008A0
:1000D0001B0100081B0100081B0100081B01000890
:1000E0001B0100081B0100081B010008DFF80CD0F1
:1000F00000F02AF800480047C5140008B0040020AA
:100100000648804706480047FEE7FEE7FEE7FEE7B1
:10011000FEE7FEE7FEE7FEE7FEE7FEE7A5130008C1
:10012000ED000008D2B201E000F8012B491EFBD21D
:1001300070470022F6E710B513460A4604461946F2
:10014000FFF7F0FF204610BD064C074D06E0E068C3
:1001500040F0010394E8070098471034AC42F6D30E
:10016000FFF7C8FF588E0008788E0008FEE770473A
:1001700010B5502000F090F9F72000F0AFF9022000
:1001800000F08AF901F08CF9072000F085F9BDE84C
:100190001040A52000F0A2B92DE9FF5F81460E4670
:1001A00050200E9F00F078F9A92000F097F9072061
:1001B00000F094F9132000F06FF900240398002553
:1001C00006EB0008F808A11B09EB070A00FB01FB7E
:1001D000B4420ED3A0450CD9B9EBC50F09D8BAEB80
:1001E000C50F06D90299A5EBD90211441BF80100ED
:1001F00000E0FF2000F072F96D1C642DE8D3641C50
:10020000B4F5F07FDAD3BDE8FF5F00F039B9000044
:100210002DE9F05F8846DDE90D1904460F9D401E6B
:1002200005FB010708EB09069A4693465020761E07
:1002300000F032F9A92000F051F9072000F04EF942
:10024000912000F029F9902000F026F9C4F307204E
:1002500000F044F9E0B200F041F9C7F3072000F0E4
:100260003DF97F1EF8B200F039F9C8F3072000F01D
:1002700035F908F0FF0000F031F9C6F3072000F06F
:100280002DF9761EF0B200F029F9012000F026F9D0
:10029000132000F001F900263FE0002706FB05F4DB
:1002A00007E000BF07EBD4011BF8010000F016F9CE
:1002B0007F1CB7EBD50FF5D3002706E007EBD40181
:1002C0001AF8010000F00AF97F1CB7EBD50FF5D33F
:1002D000002706E00A9807EBD401405C00F0FEF826
:1002E0007F1CB7EBD50FF5D3002706E00B9807EB83
:1002F000D401405C00F0F2F87F1CB7EBD50FF5D3CA
:10030000002706E00C9807EBD401405C00F0E6F80B
:100310007F1CB7EBD50FF5D3761C4E45BDD3BDE89A
:10032000F09FF0B587B0DDE90C45DDE90E67DDE94A
:1003300010CE8DE8F050FFF76BFF00F0A1F807B08A
:100340009220BDE8F04000F0A7B8000070B5324D33
:100350004FF4006400222146284600F020FA0A20CB
:1003600000F016F901222146284600F018FA0A206A
:1003700000F00EF9012000F08FF8072000F0AEF831
:10038000072000F0ABF83F2000F0A8F83F2000F075
:10039000A5F8062000F080F8172000F09FF817203D
:1003A00000F09CF8282000F099F8172000F096F84B
:1003B000042000F071F8642000F0EAF801F070F811
:1003C000002000F069F81F2000F088F8612000F09C
:1003D00063F8032000F082F8202000F07FF801206D
:1003E00000F07CF8E02000F079F8152000F054F8D7
:1003F000002000F073F8502000F04EF8102000F0BC
:100400006DF8072000F06AF8602000F045F8BDE8BC
:100410007040222000F062B80008014070B5174D0E
:100420004FF4006400222146284600F0B8F90A2063
:1004300000F0AEF801222146284600F0B0F90A206B
:1004400000F0A6F8002000F027F81F2000F046F882
:10045000042000F021F8642000F09AF801F020F860
:10046000E02000F019F8022000F038F8E52000F054
:1004700013F8BDE870406E2000F030B8000801406D
:1004800010B5122000F008F80A2000F081F8BDE84D
:10049000104001F005B8000031B50D4D4FF4805407
:1004A00000222146284600F07AF90022211109484D
:1004B00000F075F94FF47A7301226946064800F09E
:1004C00037FD01222146284600F069F938BD0000B9
:1004D000000C0140000801401000002031B50D4D16
:1004E0004FF4805400222146284600F058F901229A
:1004F0001102094800F053F94FF47A73012269465A
:10050000064800F015FD01222146284600F047F973
:1005100038BD0000000C0140000801401000002020
:1005200070B51020FFF7B8FF00244BF6803500208F
:10053000FFF7D4FF641CAC42F9D31320FFF7ACFFE4
:1005400000240020FFF7CAFF641CAC42F9D3BDE8C9
:100550007040FFF795BF70B51020FFF79DFF002496
:100560004BF68035FF20FFF7B9FF641CAC42F9D38E
:100570001320FFF791FF00240020FFF7AFFF641C5A
:10058000AC42F9D3BDE87040FFF77ABF72B6FEE720
:1005900070B5044600F008F90546601C02D0044816
:1005A0000078044400F000F9401BA042FAD370BD6B
:1005B000000000202DE9F84FDFF8B891002409F180
:1005C000040A0AF1040B23460F270BF1040EC9E0BD
:1005D0000125A5402A40AA427DD1674ED1F804C02A
:1005E000ACEB0608B44532D014DCBCF1030F3AD0B2
:1005F00009DCBCF1000F2AD0BCF1010F1CD0BCF10A
:10060000020F31D11DE0BCF1110F17D0BCF1120F58
:100610002AD119E0B8F5881F19D006DCB8F5803F5B
:1006200015D0B8F5801F1FD111E0B8F5001F0ED00E
:10063000B8F5041F18D10AE0CB6815E0CB681B1D84
:1006400012E0CB6808330FE0CB680C330CE08B680A
:100650002BB1012B4FF0080303D0456104E00423C4
:1006600002E0056100E00023FF2A01D8064601E010
:1006700000F104064FEA840501D9A5F12005D6F85A
:10068000008007FA05FC28EA0C0803FA05F548EA99
:100690000508C6F800804D68ED0062D5374DAE699B
:1006A00046F00106AE61AD6924F0030605F00105D0
:1006B0000095334D06EB050CDCF80850A607360F05
:1006C00007FA06F825EA0805DFF8B880404503D1A7
:1006D0004FF0000817E044E0DFF8AC80404502D15D
:1006E0004FF001080FE0DFF8A480404502D14FF041
:1006F000020808E0DFF89880404502D14FF0030877
:1007000001E04FF0040808FA06F848EA0508CCF8BA
:1007100008804D68D9F80060ED034D4601D51643B9
:1007200000E096432E604D68DAF80060AD03554650
:1007300001D5164300E096432E604D68DBF800605B
:10074000ED025D4601D5164300E096432E604D68EC
:10075000DEF80060AD02754601D5164300E0964311
:100760002E60641C0D682A46E5407FF431AFBDE879
:10077000F88F00000004014000001110001002403A
:100780000000014000080140000C01400010014041
:10079000001401408068084000D0012070470AB171
:1007A000016170470904FBE7014880687047000059
:1007B0000000002070B5040004D094F83D0000252E
:1007C00010B106E0012070BD84F83C50204600F0D6
:1007D00077FC242084F83D002068C16821F4005192
:1007E000C160204600F0E0FD2068016921F49041DD
:1007F00001612068416921F022014161206841695D
:1008000041F0080141612068C16841F40051C160B4
:100810002564202084F83D0084F83E00002070BD4F
:10082000024881680278114481607047000000200E
:10083000074810B5016841F010010160032000F085
:100840005FF80F2000F006F800F024F8002010BD3B
:100850000020024070B50D4D04464FF47A7128789F
:10086000B1FBF0F00A490968B1FBF0F000F013FCAD
:1008700048B9102C07D200222146501E00F020F863
:1008800000206C6070BD012070BD000000000020E1
:100890000C000020094808B5816941F0010181611F
:1008A000816901F001010091C16941F08051C1618C
:1008B000C06900F08050009008BD000000100240A8
:1008C000F0B40E4B1B680C46C3F30223C3F10705BB
:1008D000042D00D90425191D072901D2002300E0A9
:1008E000DB1E012606FA05F1491E214099409E4073
:1008F000761E16403143F0BC00F0B3BD0CED00E0B5
:10090000064900F0070208684FF6FF03184040EA66
:100910000220034A10430860704700000CED00E01D
:100920000000FA052DE9F0470F46050061D0434E5F
:10093000306800F00700B84209D2306820F00700A4
:1009400038433060306800F00700B84251D1286861
:100950003B4C810712D5400703D5606840F4E06046
:1009600060602878000703D5606840F460506060DC
:100970006068A96820F0F000084360602878C0072C
:1009800028D06868012810D02168022810D0890773
:1009900000292EDA616821F0030101436160FFF74D
:1009A00003FF804641F288390DE021688903EFE7B3
:1009B0008901EDE7FFF7F8FEA0EB0801494502D9F0
:1009C0000320BDE8F0876068696800F00C00B0EBB8
:1009D000810FEFD1306800F00700B8420BD93068C2
:1009E00020F0070038433060306800F00700B8425C
:1009F00001D00120E5E72878400705D56068E9685F
:100A000020F4E060084360602878000706D560683D
:100A1000296920F4605040EAC100606000F038F8B5
:100A20006168084AC1F30311515CC8400649086077
:100A300006480068FFF70EFF0020C2E700200240D2
:100A400000100240408E00080C000020040000202E
:100A50000448054900684968044AC1F30221515C11
:100A6000C84070470C00002000100240508E000863
:100A70000448054900684968044AC1F3C221515C31
:100A8000C84070470C00002000100240508E000843
:100A900012A185B00FC98DE80F0014A0144A006898
:100AA00004905168134801F00C03042B10D0082B5C
:100AB0000ED1C1F38343C9031DF803000AD5516861
:100AC00004AAC1F34041515C0A4A5043B0FBF1F023
:100AD00005B0704708494843FAE7000002030405DF
:100AE000060708090A0B0C0D0E0F1010010200007A
:100AF0000010024000127A0000093D002DE9F84F75
:100B0000040070D02078C04DC00749D06868C0F399
:100B10008100012807D06868C0F38100022809D14C
:100B20006868C00306D52868800339D56068002846
:100B3000E7D035E06068B0F5803F0BD010B1B0F57C
:100B4000A02F11D0286820F480302860286820F475
:100B5000802002E0286840F480302860606890B10E
:100B6000FFF722FE06460AE0286840F4802028604D
:100B7000F0E700BFFFF718FE801B642873D82868D1
:100B80008003F7D50CE0FFF70FFE064605E000BF37
:100B9000FFF70AFE801B6428F0D828688003F7D48A
:100BA00020789A4E80074FF001094FF0000839D5A0
:100BB000686810F00C0F07D06868C0F38100022845
:100BC00009D16868C00306D42868800714D5206955
:100BD000012808D110E02069B0B1C6F80090FFF7F5
:100BE000E3FD074605E00AE1FFF7DEFDC01B022832
:100BF000C4D828688007F7D52868616920F0F80014
:100C000040EAC10028600DE0C6F80080FFF7CCFD87
:100C1000074604E0FFF7C8FDC01B022823D8286858
:100C20008007F7D4207800072CD57948A169D9B17D
:100C3000C0F80090FFF7B8FD074604E0FFF7B4FDE9
:100C4000C01B02280FD8686A8007F7D571484FF497
:100C5000FA510068B0FBF1F0009000BF0098411E0F
:100C60000091FAD20EE080E0C0F80080FFF79CFD12
:100C7000074604E0FFF798FDC01B022875D8686A94
:100C80008007F7D42078400760D5E8690027C000C6
:100C900008D4E86940F08050E861E869012700F075
:100CA000805000905C480168C90513D401688346F0
:100CB00041F480710160FFF777FD824606E000BFD6
:100CC000FFF772FDA0EB0A0064284ED8DBF80000A5
:100CD000C005F5D5E06801280AD008B1052813D071
:100CE000286A20F001002862286A20F0040002E04F
:100CF000286A40F001002862E06841F2883B98B120
:100D0000FFF752FD82460BE0286A40F0040028629B
:100D1000EEE700BFFFF748FDA0EB0A0159455AD89E
:100D2000286A8007F6D50CE0FFF73EFD824605E015
:100D3000FFF73AFDA0EB0A0159454CD8286A800715
:100D4000F6D41FB1E86920F08050E861E06988B30B
:100D50006968C1F38101022944D00228C6F8608085
:100D600004D0FFF721FD044638E034E0FFF71CFD16
:100D7000074604E0FFF718FDC01B02282BD828689F
:100D80008001F7D4206AB0F5803F05D16868A1687A
:100D900020F4003008436860D4E90801084369681A
:100DA00021F4741108436860C6F86090FFF7FCFCFA
:100DB000044606E025E000BFFFF7F6FC001B022812
:100DC00009D828688001F7D51BE000BFFFF7ECFCCD
:100DD000001B022802D90320BDE8F88F2868800193
:100DE000F4D40EE00128F7D06868226A00F480315C
:100DF000914204D1616A00F47010884201D0012050
:100E0000EAE70020E8E7000000100240000042424C
:100E1000800442420C0000200070004070B50400C5
:100E200009D0606A002540B125616561A56294F82A
:100E3000510040B10CE0012070BD6068B0F5827FC8
:100E4000F4D0E561F2E784F85050204600F040F815
:100E5000022084F851002068016821F040010160FF
:100E6000A088218900F4827001F404410843A1891B
:100E700001F400610843217C01F002010843217D57
:100E800001F001010843218B01F400710843217F27
:100E900001F03801084394F8201001F08001084364
:100EA000218D01F40051084321680860A0690421E4
:100EB00001EA1040216848602068C16921F400619E
:100EC000C1616565012084F85100002070BD0000FB
:100ED00000B585B000210091019102910391006855
:100EE000104988421BD11048C16941F48041C16159
:100EF000C16901F480410491816941F00801816177
:100F00008069694600F0080004904FF4204000908A
:100F100002200190032003900448FFF74BFB05B02B
:100F200000BD00000038004000100240000C0140ED
:100F30002DE9F84F044690F8500000271D4616464C
:100F4000894601280DD04FF0010B84F850B0FFF70F
:100F50002BFC804694F85100BA46012804D00227A1
:100F600093E00220BDE8F88FB9F1000F73D0002E96
:100F700071D0032084F85100C4F854A0C4F8309014
:100F8000A686E686C4F838A0A4F83CA0A4F83EA043
:100F9000C4F844A0C4F840A0A068B0F5004F09D13F
:100FA0002068016821F0400101602068016841F477
:100FB0008041016020680168490603D4016841F05E
:100FC00040010160E068B0F5006F606803D030B3A5
:100FD000012E24D041E008B1012E1CD1206B2168E4
:100FE0000088C86006E020688168890709D5216B00
:100FF0000988C160206B801C2063E08E401EE08663
:1010000009E0FFF7D1FBA0EB0800A84202D3681C5F
:1010100001D031E07DB3E08E0028E4D120E0206BE8
:1010200021680078087306E020688168890709D57F
:10103000216B09780173206B401C2063E08E401EF9
:10104000E0860AE0FFF7B0FBA0EB0800A84203D35C
:10105000681C02D010E017E06DB1E08E0028E3D1EB
:1010600042462946204600F0FEF808B1202060657F
:10107000A06818B106E0FFE7032706E02068C16812
:1010800080680090606D00B1012784F851B084F849
:1010900050A0384666E710B5401EB0F1807F01D3FE
:1010A000012010BD4FF0E02460610F21601700F0B7
:1010B000D8F90020A06107202061002010BD0000A9
:1010C00000B585B000210091019102910391006863
:1010D000104988421BD11048816941F480418161E7
:1010E000816901F480410491816941F004018161C9
:1010F0008069694600F0040004904FF4007000908D
:1011000012200190032003900448FFF753FA05B022
:1011100000BD0000003801400010024000080140FE
:10112000FEE700002DE9F04385B000242948009433
:10113000019402940394816941F0200181618169E5
:1011400001F020010491816941F008018161816908
:1011500001F008010491816941F004018161806915
:10116000DFF8749000F004004FF4835504900022DF
:1011700029464846FFF713FBDFF860804FF41067FD
:10118000002239464046FFF70AFB0095022601255A
:101190000396CDE9015469464846FFF70BFA0097DC
:1011A0000396CDE9015469464046FFF703FA280348
:1011B0008DE8310069464046FFF7FCF94FF4C070F6
:1011C0008DE8310069464846FFF7F4F905B0BDE8FF
:1011D000F083000000100240000C014000080140B4
:1011E000104810B50E4901604FF482714160002132
:1011F0008160C1604FF400720161C0E905122822CC
:10120000C0E90721416281620A21C162FFF706FE3F
:10121000002803D0BDE81040FFF7B8B910BD0000AA
:1012200000380040100000200C4810B50A49016049
:101230004FF4E1314160002181600822C160C0E9C2
:1012400004128161C161FFF7B5FA002803D0BDE83F
:101250001040FFF79BB910BD003801406800002026
:10126000FEE7FEE7704738B50B46009204460022C1
:10127000802100F009F8002804D0606D40F02000C3
:101280006065032038BD00002DE9F8431E469146F5
:1012900088460446089DFFF787FA401B351AFFF77A
:1012A00083FA074625480068C0F3CB30684338E02E
:1012B000701C37D0FFF778FAC01BA84203D215B1D3
:1012C000009860B32CE02068416821F0E0014160A3
:1012D0006068B0F5827F0BD1A068B0F5004F02D0F6
:1012E000B0F5806F04D12068016821F040010160F1
:1012F000A06AB0F5005F09D12068016821F40051AF
:1013000001602068016841F400510160012084F807
:101310005100002084F850000320BDE8F883002528
:10132000401E00902068816838EA010004D0002146
:101330004945BDD10020F0E70121F9E70C0000206C
:101340007047FFF76DBA30B58FB028216846FEF7B9
:10135000F0FE14210AA8FEF7ECFE01210804CDE9F5
:1013600000100024029402250491CDE907504FF4A7
:10137000E01009906846FFF7C1FB08B172B6FEE7BE
:101380000F20CDE90A054FF48060CDE90C40022121
:101390000AA80E94FFF7C6FA002801D072B6FEE73D
:1013A0000FB030BD7047000070B504460068016999
:1013B000E26821F44051114301612169A0680843AA
:1013C000616908432168CA6841F20C639A43024389
:1013D000CA6020684169A26921F4407111434161EA
:1013E0001E492068884202D1FFF742FB01E0FFF767
:1013F0002FFB00EBC00101EB00126068642180004C
:10140000B2FBF0F3B3FBF1F36FF018067343B2FBDA
:10141000F0F5B2FBF0F605EB8305322303EB05157F
:10142000B5FBF1F5B6FBF1F605F0F00505EB061599
:10143000B2FBF0F6B2FBF0F0B0FBF1F06FF0180287
:10144000504306EB800003EB0010B0FBF1F0216885
:1014500000F00F002844886070BD00000038014093
:10146000FEE70907090E002804DB00F1E02080F800
:101470000014704700F00F0000F1E02080F8141D08
:10148000704702E008C8121F08C1002AFAD170474D
:101490007047002001E001C1121F002AFBD17047F4
:1014A00070B54FF48054064D02E00520FFF770F848
:1014B00021462846FFF76EF90028F6D070BD0000DF
:1014C0000008014086B0FFF7B3F9FFF73CFFFFF7D4
:1014D00029FEFFF785FEFFF7A7FEFEF737FFFFF7B0
:1014E0001FF84FF4FA6A54465046FFF751F8FEF7DA
:1014F0002DFF4FF4C875F0232A4A7821C8200095A3
:10150000FEF74AFEFEF734FE2046FFF741F8FEF7ED
:101510001DFFFFF705F84FF47A70FFF739F8F02355
:10152000214A7821C8200095FEF736FEFEF720FEFE
:101530002046FFF72DF8FEF709FFFFF70CF8FEF73E
:101540006DFF1A4D0024302668274FF0050805F579
:10155000C35905F51C7B00BFC4EBC40101EB44116A
:1015600005EB0111CDF80090CDF80C80CDE90151CB
:10157000CDE904760D4B5A46B421F020FEF7D1FE9A
:10158000641CE4B2062CE7D3FEF7F2FD5046FEF7EA
:10159000FFFFFEF7DBFEFEF7C3FF4FF47A70FEF7A6
:1015A000F7FFFEE7B0150008605F000890440008F0
:1015B000FFFFFFFFFFFFFFFFFFFFFFFFFFFFFFFF3B
:1015C000FFFFFFFFFFFFFFFFFFFFFFFFFFFFFFFF2B
:1015D000FFFFFFFFFFFFFFFFFFFFFFFFFFFFFFFF1B
:1015E000FFFFFFFFFFFFFFFFFFFFFFFFFFFFFFFF0B
:10193000FFFFFFFFFFFFFFFFFF00FFFFFFFFFFFFB6
:10194000FFFFFFFFFFFFFFFFFFFFFFFFF803FFFFAA
:10195000FFFFFFFFFFFFFFFFFFFFFFFFFFFFFFFF97
:10196000FFFFFFFFFFFFFFFFFFFFF0000FFFC000C3
:101970000000FE00000007F001FFF001FFFF000083
:101980003FFFC000001FFF80000001FFFF0007FFB6
:10199000E000000003FFFFFFFFFFFFFF800003FFE9
:1019A000C0000000FE00000007F000FFF001FFFC97
:1019B00000000FFF80000003FF80000001FFFE0019
:1019C00007FFE000000003FFFFFFFFFFFFFF000035
:1019D00001FFC0000000FE00000007F000FFF00162
:1019E000FFF8000007FF80000001FF80000001FFFA
:1019F000FE0007FFE000000003FFFFFFFFFFFFFE08
:101A0000000000FFC0000000FE00000007F0007FA3
:101A1000F001FFE0000003FF80000000FF800000F5
:101A200001FFFE0003FFE000000003FFFFFFFFFFD8
:101A3000FFFC0000007FC0000000FE00000007F077
:101A4000007FF001FFC0000001FF800000007F80E8
:101A5000000001FFFC0003FFE000000003FFFFFFA8
:101A6000FFFFFFFC0000007FC0000000FE00000040
:101A700007F0003FF001FF80000000FF8000000041
:101A80007F80000001FFFC0003FFE000000003FF77
:101A9000FFFFFFFFFFF80000003FC0000000FE0056
:101AA000000007F0001FF001FF80000000FF800031
:101AB00000003F80000001FFFC0001FFE00000008B
:101AC00003FFFFFFFFFFFFF800FC003FC000000026
:101AD000FE00000007F0001FF001FF000000007F83
:101AE000800000003F80000001FFF80001FFE000DF
:101AF000000003FFFFFFFFFFFFF801FE003FC000F3
:101B00000000FE00000007F0000FF001FF0003E0FE
:101B1000007F8007F8003F80040001FFF80001FF0C
:101B2000E000000003FFFFFFFFFFFFF001FE001FCA
:101B3000C007FFFFFE003FFFFFF00007F001FE00BF
:101B40000FF8003F8007FC001F800FFFFFFFF80029
:101B500000FFE000000003FFFFFFFFFFFFF001FFB9
:101B6000001FC007FFFFFE003FFFFFF00007F0016E
:101B7000FE001FFC003F8007FE001F800FFFFFFFDD
:101B8000F00000FFFFFE003FFFFFFFFFFFFFFFF041
:101B900001FF00FFC007FFFFFE003FFFFFF0000353
:101BA000F001FC003FFC03FF8007FE001F800FFFD9
:101BB000FFFFF00000FFFFFE003FFFFFFFFFFFFF02
:101BC000FFF0007FFFFFC007FFFFFE003FFFFFF0B9
:101BD0000003F001FC003FFE7FFF8007FE001F8036
:101BE0000FFFFFFFF002007FFFFE003FFFFFFFFF40
:101BF000FFFFFFF00007FFFFC007FFFFFE003FFFF2
:101C0000FFF00001F001FC007FFFFFFF8007FE00F6
:101C10003F800FFFFFFFE006007FFFFE003FFFFF5A
:101C2000FFFFFFFFFFF80000FFFFC007FFFFFE0000
:101C30003FFFFFF00000F001FC007FFFFFFF800787
:101C4000FE003F800FFFFFFFE006007FFFFE003F2A
:101C5000FFFFFFFFFFFFFFF800001FFFC0000001B4
:101C6000FE0000000FF00000F001F8007FFFFFFF12
:101C70008007F8003F80000003FFE006003FFFFE02
:101C8000003FFFFFFFFFFFFFFFFC000007FFC0005A
:101C90000001FE0000000FF000007001F8007FFF5F
:101CA000FFFF800000003F80000003FFC00F003FE7
:101CB000FFFE003FFFFFFFFFFFFFFFFC000001FFF3
:101CC000C0000001FE0000000FF000007001F800ED
:101CD0007F80003F800000007F80000003FFC00F76
:101CE000003FFFFE003FFFFFFFFFFFFFFFFE000082
:101CF000007FC0000001FE0000000FF00000300176
:101D0000F800FF80003F80000000FF80000003FF1C
:101D1000C00F001FFFFE003FFFFFFFFFFFFFFFFFA1
:101D20000000007FC0000001FE0000000FF0000076
:101D30001001F800FF80003F80000000FF800000DD
:101D400003FF800F801FFFFE003FFFFFFFFFFFFF2D
:101D5000FFFFC000003FC0000001FE0000000FF0C8
:101D600001001001F800FF80003F80000003FF80A9
:101D7000000003FF801F801FFFFE003FFFFFFFFFEB
:101D8000FFFFFFFFE000001FC0000001FE00000099
:101D90000FF001800001F800FF80003F8000000785
:101DA000FF80000003FF801F800FFFFE003FFFFF4A
:101DB000FFFFFFFFFFFFFC00001FC0000001FE004F
:101DC00000000FF001800001F800FF80003F80005C
:101DD000001FFF80000003FF001F800FFFFE003F79
:101DE000FFFFFFFFFFFFFFFFFF80000FC007FFFFA8
:101DF000FE003FFFFFF001C00001F8007F80003FC0
:101E00008000000FFF800FFFFFFF003FC00FFFFEAD
:101E1000003FFFFFFFFFFFFFFFFFFFF0000FC007C6
:101E2000FFFFFE003FFFFFF001E00001F8007F80B0
:101E3000003F80070007FF800FFFFFFF003FC00744
:101E4000FFFE003FFFFFFFFFFFFFFFFFFFFE000F52
:101E5000C007FFFFFE003FFFFFF001E00001F800B8
:101E60007F80003F80078003FF800FFFFFFE0000A0
:101E70000007FFFE003FFFFFFFFFFFFFFFFFE3FF45
:101E8000000FC007FFFFFE003FFFFFF001F0000161
:101E9000FC007FFF003F8007C001FF800FFFFFFEB7
:101EA00000000007FFFE003FFFFFFFFFFFFFFFE016
:101EB00003FF800FC007FFFFFE003FFFFFF001F0B0
:101EC0000001FC003FFF003F8007C001FF800FFFC3
:101ED000FFFE00000003FFFE003FFFFFFFFFFFFFCC
:101EE000FFE003FF800FC007FFFFFE003FFFFFF092
:101EF00001F80001FC003FFF003F8007E000FF8089
:101F00000FFFFFFC00000003FFFE003FFFFFFFFF8D
:101F1000FFFFFFE003FF800FC007FFFFFE003FFF52
:101F2000FFF001FC0001FE001FFF003F8007E00002
:101F3000FF800FFFFFFC00000003FFFE003FFFFFDC
:101F4000FFFFFFFFFFE001FF800FC007FFFFFE0064
:101F50003FFFFFF001FC0001FE000FFE003F800785
:101F6000F0007F800FFFFFFC00000001FFFE003F3C
:101F7000FFFFFFFFFFFFFFF000FF000FC0000000AA
:101F80007E00000003F001FE0001FE0007F8003FA4
:101F90008007F0007F80000000F800000001FFFED5
:101FA000003FFFFFFFFFFFFFFFF0007E001FC000AC
:101FB00000007E00000003F001FE0001FF000000B1
:101FC000003F8007F8003F80000000F8000000019B
:101FD000FFFE003FFFFFFFFFFFFFFFF80000001FB5
:101FE000C00000007E00000003F001FF0001FF00C0
:101FF0000000003F8007F8003F80000000F800006C
:102000000000FFFE003FFFFFFFFFFFFFFFF80000A3
:10201000003FC00000007E00000003F001FF8001CF
:10202000FF800000003F8007FC001F80000000F0E0
:1020300001FFF800FFFE003FFFFFFFFFFFFFFFFC77
:102040000000003FC00000007E00000003F001FF20
:102050008001FFC00000007F8007FC001F8000009F
:1020600000F001FFF8007FFE003FFFFFFFFFFFFFD2
:10207000FFFC0000007FC00000007E00000003F0B5
:1020800001FFC001FFE0000000FF8007FE000F809D
:10209000000000F001FFF8007FFE003FFFFFFFFFA0
:1020A000FFFFFFFE000000FFC00000007E000000F8
:1020B00003F001FFE001FFF0000003FF8007FE00D6
:1020C0000F80000000E001FFF8007FFE003FFFFFEF
:1020D000FFFFFFFFFFFF000003FFC00000007E00C6
:1020E000000003F001FFE001FFF800000FFF800790
:1020F000FF000780000000E003FFFC007FFE003FC0
:10210000FFFFFFFFFFFFFFFFC00007FFC000000051
:102110007E00000003F001FFF001FFFE00003FFF22
:102120008007FF000780000000E003FFFC003FFE87
:10213000003FFFFFFFFFFFFFFFFFF8003FFFE10051
:102140000000FF00000007F803FFFC01FFFFC001D3
:10215000FFFFC10FFFC00780000001E087FFFE0006
:102160003FFF003FFFFFFFFFFFFFFFFFFFFFFFFFFE
:10217000FFFFFFFFFFFFFFFFFFFFFFFFFFFFFFFF6F
:10218000FFFFFFFFFFFFFFFFFFFFFFFFFFFFFFFF5F
:10219000FFFFFFFFFFFFFFFFFFFFFFFFFFFFFFFF4F
:1021A000FFFFFFFFFFFFFFFFFFFFFFFFFFFFFFFF3F
:10264000FFFFFFFFFFFFFFFFFFFFFFFFFFFFFF3F5A
:10265000FFFFFFFFFFFFFFFFFFFFFFFFFFFFFFFF8A
:10266000FFFFFFFFFFFFFFFFFFFFFFFFFFFFFFFF7A
:10267000FFFFFFFFFFFFFFFFFFFFFFFFFFFFFFFF6A
:10268000FE1FFFFFFFFFFFFFFFFFFFFFFFFFFFFF3B
:10269000FFFFFFFFFFFFFFFFFFFFFFFFFFFFFFFF4A
:1026A000FFFFFFFFFFFFFFFFFFFFFFFFFFFFFFFF3A
:1026B000FFFFFC0FFFFFFFFFFFFFFFFFFFFFFFFF1D
:1026C000FFFCFFFFFFFFFFFFFFFFFFFFFFFFFFFF1D
:1026D000FFFFFFFFFFFFFFFFFFFFFFFFFFFFFFFF0A
:1026E000FFFFFFFFF807FFFFFFFFFFFFFFFFFE3FBA
:1026F000FFFFFFF8FFFFFFFFFFFFFFFFFFFFFFFFF1
:10270000FFFFFFFFFFFFFFFFFFFFFFFFFFFFFFFFD9
:10271000FFFFFFFFFFFFF003FFFFFFFC001FFE00B6
:102720003C1FFFFFFFF8FFFFFC007FFE00FFFFFFE5
:10273000FFFFFFFFFFFFFFFFFFFFFFFFFFFFFFFFA9
:10274000FFFFFFFFFFFFFFFFE003FFFFFFFC001F96
:10275000FE003C1FFFFFFFF8FFFFF8007FFE003F79
:10276000FFFFFFFFFFFFFFFFFFFFFFFFFFFFFFFF79
:10277000FFFFFFFFFFFFFFFFFFFFC001FFFFFFFCA9
:10278000001FFE003E3FFFFFFFF0FFFFF8007FFE4F
:10279000001FFFFFFFFFFFFFFFFFFFFFFFFFFFFF28
:1027A000FFFFFFFFFFFFFFFFFFFFFFFF8000FFFFB7
:1027B000FFFC001FFE003FFFFFFFFFF8FFFFF83F99
:1027C000FFFE1C0FFFFFFFFFFFFFFFFFFFFFFFFFED
:1027D000FFFFFFFFFFFFFFFFFFFFFFFFFFFF000007
:1027E0007FFFFFFFFC1FFE3FFFFFFFFFFFF8FFFF24
:1027F000F87FFFFE1E0FFFFFFFFFFFFFFFFFFFFF42
:10280000FFFFFFFFFFFFFFFFFFFFFFFFFFFFFFFED9
:1028100000003FFFFFFFFC3FFE3FFFFFF8FFE0F837
:10282000E1FFF87FFFFE1F0FC0FFF87FF07FF8FF8A
:10283000FFFFFFFFFFFFFFFFFFFFFFFFFFFFFFFFA8
:10284000FFFE00001FFFFFFFFC3FFE3FFE3C203F5E
:10285000807000FFF87FFFFE1F0F003E301FC03F5B
:1028600010FFFFFFFFFFFFFFFFFFFFFFFFFFFFFF67
:10287000FFFFFFFC00000FFFFFFFF83FFE3FFE3CA5
:10288000001F0038007FF87FFFFE1F0E003E001F74
:10289000801F007FFFFFFFFFFFFFFFFFFFFFFFFF26
:1028A000FFFFFFFFFFF8000007FFFFFFF87FFE1F9D
:1028B000FE3C001F0E38007FF83FFFFE1F0E1C1E5F
:1028C000000F060F00FFFFFFFFFFFFFFFFFFFFFFEF
:1028D000FFFFFFFFFFFFFFF0000007FFFFFFF07F9C
:1028E000FE00FE3C0E1E1F78387FF800FFFE1F0E14
:1028F0007E1E0F0F0F0F07FFFFFFFFFFFFFFFFFF02
:10290000FFFFFFFFFFFFFFFFFFF8000007FFFFFFD4
:10291000F0FFFE007E3C1E1E1FF8787FF800FFFED1
:102920001E0FFE1E1F0E1F8F0FFFFFFFFFFFFFFF7B
:10293000FFFFFFFFFFFFFFFFFFFFFFFC00000FFF98
:10294000FFFFF0FFFE003E3C3F1E3FF8FC3FF8005B
:10295000FFFE001FFE1E1F061F8F0FFFFFFFFFFF62
:10296000FFFFFFFFFFFFFFFFFFFFFFFFFFFE000076
:102970001FFFFFFFE0FFFFF81E3C3F1C3FF8FC3F3E
:10298000F83FF01E003FE01E1F86000F1FFFFFFFF5
:10299000FFFFFFFFFFFFFFFFFFFFFFFFFFFFFFFF47
:1029A00000003FFFFFFFE1FFFFFC1E3C3F1C3FF02C
:1029B000FC3FF87FF01E00FF001E1F86000F0FFF78
:1029C000FFFFFFFFFFFFFFFFFFFFFFFFFFFFFFFF17
:1029D000FFFF00007FFFFFFFC1FFFFFE1E3C3F1C0B
:1029E0003FF8FC3FF87FF01E1FFE001E1F86000F01
:1029F0001FFFFFFFFFFFFFFFFFFFFFFFFFFFFFFFC7
:102A0000FFFFFFFF8000FFFFFFFFC3FFFFFE1E3C35
:102A10003F1C3FF0FC3FF87FFFFE1FFE1E1E1F867F
:102A20001FFF1FFFFFFFFFFFFFFFFFFFFFFFFFFF76
:102A3000FFFFFFFFFFFFC001FFFFFFFFC3FF7FFEA0
:102A40001E3C3F1E1FF8FC3FF87FFFFE1FFC3E1E92
:102A50001F0E1FFF1FFFFFFFFFFFFFFFFFFFFFFF17
:102A6000FFFFFFFFFFFFFFFFE003FFFFFFFF83FE0E
:102A70001FFC1E1C3F1E1F70FC3FF87FFFFE1FFC4B
:102A80003E1E0F0E1FFF1FFFFFFFFFFFFFFFFFFF99
:102A9000FFFFFFFFFFFFFFFFFFFFF007FFFFFFFF4D
:102AA00087FC1C783E3C3F1E0E38FC3FF83FFFFE83
:102AB0001FFE1C1E060F0FCF1FFFFFFFFFFFFFFFB4
:102AC000FFFFFFFFFFFFFFFFFFFFFFFFF807FFFF15
:102AD000FFFF07FC1C003E1C3F1F0030FC3FF800BE
:102AE0007FFE1FFE001E001F000F1FFFFFFFFFFFE6
:102AF000FFFFFFFFFFFFFFFFFFFFFFFFFFFFFC0FD9
:102B0000FFFFFFFF0FFC1C007E1C3F1F0078FC3FF7
:102B1000F8007FFE1FFE001E001F800F1FFFFFFF3B
:102B2000FFFFFFFFFFFFFFFFFFFFFFFFFFFFFFFFB5
:102B3000FE1FFFFFFFFF0FFE3E00FE3C3F1F80F821
:102B4000FC7FFC007FFE1FFF011E103FC01F1FFF08
:102B5000FFFFFFFFFFFFFFFFFFFFFFFFFFFFFFFF85
:102B6000FFFFFF3FFFFFFFFFFFFFFFCFFFFFFFFF65
:102B7000FBFFFFFFFFFFFFFFFFFFEFFE1DFFF9FF62
:102B8000FFFFFFFFFFFFFFFFFFFFFFFFFFFFFFFF55
:102B9000FFFFFFFFFFFFFFFFFFFFFFFFFFFFFFFF45
:102BA000FFFFFFFFFFFFFFFFFFFFFFFFFFFE1FFF16
:102BB000FFFFFFFFFFFFFFFFFFFFFFFFFFFFFFFF25
:102BC000FFFFFFFFFFFFFFFFFFFFFFFFFFFFFFFF15
:102BD000FFFFFFFFFFFFFFFFFFFFFFFFFFFFFFFE06
:102BE0001FFFFFFFFFFFFFFFFFFFFFFFFFFFFFFFD5
:102BF000FFFFFFFFFFFFFFFFFFFFFFFFFFFFFFFFE5
:102C0000FFFFFFFFFFFFFFFFFFFFFFFFFFFFFFFFD4
:102C1000FFFE1FFFFFFFFFFFFFFFFFFFFFFFFFFFA5
:102C2000FFFFFFFFFFFFFFFFFFFFFFFFFFFFFFFFB4
:102C3000FFFFFFFFFFFFFFFFFFFFFFFFFFFFFFFFA4
:102C4000FFFFFFFE1FFFFFFFFFFFFFFFFFFFFFFF75
:102C5000FFFFFFFFFFFFFFFFFFFFFFFFFFFFFFFF84
:102C6000FFFFFFFFFFFFFFFFFFFFFFFFFFFFFFFF74
:102C7000FFFFFFFFFFFE1FFFFFFFFFFFFFFFFFFF45
:102C8000FFFFFFFFFFFFFFFFFFFFFFFFFFFFFFFF54
:102C9000FFFFFFFFFFFFFFFFFFFFFFFFFFFFFFFF44
:102CA000FFFFFFFFFFFFFFFF7FFFFFFFFFFFFFFFB4
:102CB000FFFFFFFFFFFFFFFFFFFFFFFFFFFFFFFF24
:102CC000FFFFFFFFFFFFFFFFFFFFFFFFFFFFFFFF14
:102CD000FFFFFFFFFFFFFFFFFFFFFFFFFFFFFFFF04
:102CE000FFFFFFFFFFFFFFFFFFFFFFFFFFFFFFFFF4
:10304000FFFFFFFFFF3FFFFFFFFFFFFFFFFFFFFF50
:10305000FFFFFFFFFFFFFFFFFFFFFFFFFFFFFFFF80
:10306000FFFFFFFFFFFFFFFFFFFFFFFFFFFFFFFF70
:10307000FFFFFFFFFFFFFE1FFFFFFFFFFFFFFFFF41
:10308000FFFFFFFFFFFFFFFFFFFFFFFFFFFFFFFF50
:10309000FFFFFFFFFFFFFFFFFFFFFFFFFFFFFFFF40
:1030A000FFFFFFFFFFFFFFFFFC1FFFFFFFFFFFFF13
:1030B000FFFFFFFFFFFFFFFFFFFFFFFFFFFFFFFF20
:1030C000FFFFFFFFFFFFFFFFFFFFFFFFFFFFFFFF10
:1030D000FFFFFFFFFFFFFFFFFFFFF80FFFFFFFFFF7
:1030E000FFFFFFFFFFFFFFFFFFFFFFFFFFFFFFFFF0
:1030F000FFFFF3FFFFFFFF87FFFFFFFFFFFFFFFF64
:10310000FFFFFFFFFFFFFFFFFFFFFFFFF007FFFFD6
:10311000FFFFC0FFC1FFC1FFFFFFFFFFCFFC0FFE9E
:103120000FFFFFFFE1FFFFFFFF87FFFFFFFFFFFF35
:10313000FFFFFFFFFFFFFFFFFFFFFFFFFFFFE003BA
:10314000FFFFFFFF007F007F007FFFFFFFFF03F017
:1031500003F803FFFFFFE1FFFFFFFF87FFFFFFFF14
:10316000FFFFFFFFFFFFFFFFFFFFFFFFFFFFFFFF6F
:10317000C001FFFFFFFE003E003E007FFFFFFFFF9C
:1031800003E001F003FFFFFFE1FFFFFFFF87FFFF09
:10319000FFFFFFFFFFFFFFFFFFFFFFFFFFFFFFFF3F
:1031A000FFFFC000FFFFFFFE1C1E003E003FFFFFB1
:1031B000FFFE03E1C1F001FFFFFFF3FFFFFFFF8709
:1031C000FFFFFFFFFFFFFFFFFFFFFFFFFFFFFFFF0F
:1031D000FFFFFFFF80007FFFFFFC3E1C1C1C3C3FED
:1031E000FFFFFFFE03E1E1E1E1FFFFFFFFFFFFFF64
:1031F000FF87FFFFFFFFFFFFFFFFFFFFFFFFFFFF57
:10320000FFFFFFFFFFFF00003FFFFFFC3E1C3E1CD7
:103210003C1FFFFFFFFC43C3E1E1E0FFFFCFFFFFE7
:10322000FFFC7F87F9FFFFFFFFFFFFFFFFFFFFFFAF
:10323000FFFFFFFFFFFFFFFE00001FFFFFFC3E1C24
:103240003E187E1FF87C7FFC43C3E1E1F0FFC6031C
:10325000E1C3E1F01F87C03FFFFFFFFFFFFFFFFF5C
:10326000FFFFFFFFFFFFFFFFFFFC00000FFFFFFC62
:103270001E383E187E1FF8787FF8C3E1E1C3F0FFE7
:10328000C001E1C1C3E00F87803FFFFFFFFFFFFFE9
:10329000FFFFFFFFFFFFFFFFFFFFFFF800000FFF33
:1032A000FFFE0C387E187E1FFC387FF0C3E0C3C3DE
:1032B000F0FFC001E1E1C3C00787803FFFFFFFFFD0
:1032C000FFFFFFFFFFFFFFFFFFFFFFFFFFF000001B
:1032D00007FFFFFE00787E187E1FFC30FFF1C3F071
:1032E00003C3F0FFC0E1E1E08783C7878FBFFFFF23
:1032F000FFFFFFFFFFFFFFFFFFFFFFFFFFFFFFF8E5
:10330000000007FFFFFF00F87E187E1FFE10FFE1A0
:10331000C3F80FC3F0FFC1E0E1F08787C3870FFF59
:10332000FFFFFFFFFFFFFFFFFFFFFFFFFFFFFFFFAD
:10333000FFF800000FFFFFFF80787E187E1FFE0160
:10334000FFE3C3F807C3F0FFC3F0E1F00F87C387C3
:1033500007FFFFFFFFFFFFFFFFFFFFFFFFFFFFFF75
:10336000FFFFFFFC00001FFFFFFF00387E187E1FDD
:10337000FF01FFC3C3F003C3F0FFC3F0E1F80F8701
:10338000838781FFFFFFFFFFFFFFFFFFFFFFFFFFBF
:10339000FFFFFFFFFFFE00003FFFFFFE18187E1833
:1033A0007E1FFF03FFC7C3E0C1C3F0FFC3F0E1F816
:1033B0001F800387807FFFFFFFFFFFFFFFFFFFFFEF
:1033C000FFFFFFFFFFFFFFFF00007FFFFFFC3E1836
:1033D0007E187E1FFF03FFC000E1E1C3F0FFC3F0D2
:1033E000E1F81F800387C03FFFFFFFFFFFFFFFFFE4
:1033F000FFFFFFFFFFFFFFFFFFFF80007FFFFFFCDE
:103400003E183E187E1FFE01FFC000C3E0C3F0FF60
:10341000C3F0E1F80F87FF87F01FFFFFFFFFFFFFFB
:10342000FFFFFFFFFFFFFFFFFFFFFFFFC000FFFFEA
:10343000FFFC3E1C3E183E1FFE01FFC000C3F0C152
:10344000F0FFC3F0E1F00F87FF87FC1FFFFFFFFFD6
:10345000FFFFFFFFFFFFFFFFFFFFFFFFFFFFE00199
:10346000FFFFFFFC3E1C3E1C3C3FFC20FFC000C396
:10347000F0E1E1FFC1E0E1F08787FF87FE1FFFFF7A
:10348000FFFFFFFFFFFFFFFFFFFFFFFFFFFFFFFF4C
:10349000F003FFFFFFFC3E1C1C3C3C3FFC30FFFFE9
:1034A000C3C3E0E1E1FFC0E1E1E18787FF873E1FA1
:1034B000FFFFFFFFFFFFFFFFFFFFFFFFFFFFFFFF1C
:1034C000FFFFF807FFFFFFFC1C1E003C003FFC70E5
:1034D0007FFFC3C0C1E001FFC001E1E1C3C1C787F5
:1034E0000C1FFFFFFFFFFFFFFFFFFFFFFFFFFFFFBF
:1034F000FFFFFFFFFC0FFFFFFFFE003E007E007F8F
:10350000F8787FFFC3E001F003FFC003E1C3C3C04D
:103510000787003FFFFFFFFFFFFFFFFFFFFFFFFFEA
:10352000FFFFFFFFFFFFFE1FFFFFFFFF007F00FF0A
:1035300000FFF8F87FFFC3F007F807FFC203E1C3FD
:10354000E1E00787807FFFFFFFFFFFFFFFFFFFFF37
:10355000FFFFFFFFFFFFFFFFFE3FFFFFFFFFC1FF7A
:10356000C3FFC3FFFFFFFFFFFFFC1FFE1FFFC30FD3
:10357000FFFFFFF81FFFE1FFFFFFFFFFFFFFFFFF60
:10358000FFFFFFFFFFFFFFFFFFFFFF7FFFFFFFFFCB
:10359000FFFFFFFFFFFFFFFFFFFFFFFFFFFFFFFF3B
:1035A000C3FFFFFFFFFFFFFFFFFFFFFFFFFFFFFF67
:1035B000FFFFFFFFFFFFFFFFFFFFFFFFFFFFFFFF1B
:1035C000FFFFFFFFFFFFFFFFFFFFFFFFFFFFFFFF0B
:1035D000FFFFC3FFFFFFFFFFFFFFFFFFFFFFFFFF37
:1035E000FFFFFFFFFFFFFFFFFFFFFFFFFFFFFFFFEB
:1035F000FFFFFFFFFFFFFFFFFFFFFFFFFFFFFFFFDB
:10360000FFFFFFFFC3FFFFFFFFFFFFFFFFFFFFFF06
:10361000FFFFFFFFFFFFFFFFFFFFFFFFFFFFFFFFBA
:10362000FFFFFFFFFFFFFFFFFFFFFFFFFFFFFFFFAA
:10363000FFFFFFFFFFFFC3FFFFFFFFFFFFFFFFFFD6
:10364000FFFFFFFFFFFFFFFFFFFFFFFFFFFFFFFF8A
:10365000FFFFFFFFFFFFFFFFFFFFFFFFFFFFFFFF7A
:10366000FFFFFFFFFFFFFFFFC3FFFFFFFFFFFFFFA6
:10367000FFFFFFFFFFFFFFFFFFFFFFFFFFFFFFFF5A
:10368000FFFFFFFFFFFFFFFFFFFFFFFFFFFFFFFF4A
:10369000FFFFFFFFFFFFFFFFFFFFE3FFFFFFFFFF56
:1036A000FFFFFFFFFFFFFFFFFFFFFFFFFFFFFFFF2A
:1036B000FFFFFFFFFFFFFFFFFFFFFFFFFFFFFFFF1A
:1036C000FFFFFFFFFFFFFFFFFFFFFFFFFFFFFFFF0A
:1036D000FFFFFFFFFFFFFFFFFFFFFFFFFFFFFFFFFA
:103A3000FFFFFFFFFFFFFFFFFFFFFF3FFFFFFFFF56
:103A4000FFFFFFFFFFFFFFFFFFFFFFFFFFFFFFFF86
:103A5000FFFFFFFFFFFFFFFFFFFFFFFFFFFFFFFF76
:103A6000FFFFFFFFFFFFFFFFFFFFFFFFFE1FFFFF47
:103A7000FFFFFFFFFFFFFFFFFFFFFFFFFFFFFFFF56
:103A8000FFFFFFFFFFFFFFFFFFFFFFFFFFFFFFFF46
:103A9000FFFFFFFFFFFFFFFFFFFFFFFFFFFFFC0F29
:103AA000FFFFFFFFFFFFFFFFFFFFFFFFFFFFFFFF26
:103AB000FFFF87FFFFFFFFFFFFFFFFFFFFFFFFFF8E
:103AC000FFFFFFFFFFFFFFFFFFFFFFFFFFFFFFFF06
:103AD000F807FFFFFFFFFFFFFFFFFFFFFFFFFFFFF5
:103AE000FFFFFFFE07FFFFFFFFFFFFFFFFFFFFFFDF
:103AF000FFFFFFFFFFFFFFFFFFFFFFFFFFFFFFFFD6
:103B0000FFFFF007FFFFFFFF80FC03FE3FFE7FFF8C
:103B1000FFFFFFFFFFFE07FFFFFFFFFFFFFFFFFFAE
:103B2000FFFFFFFFFFFFFFFFFFFFFFFFFFFFFFFFA5
:103B3000FFFFFFFFE003FFFFFFFF007C007C3FFC77
:103B40003FFFFF9FFFFFFFFC17FFFFFFFFFFFFFF90
:103B5000FFFFFFFFFFFFFFFFFFFFFFFFFFFFFFFF75
:103B6000FFFFFFFFFFFFC001FFFFFFFE007C003CE7
:103B70003FFC3FFFFF0FFFFFFFFC3FFFFFFFFFFF8B
:103B8000FFFFFFFFFFFFFFFFFFFFFFFFFFFFFFFF45
:103B9000FFFFFFFFFFFFFFFF8000FFFFFFFC1E7C1A
:103BA000003C3FFC3FFFFF0FFFFFFFFC3FFFFFFF1D
:103BB000FFFFFFFFFFFFFFFFFFFFFFFFFFFFFFFF15
:103BC000FFFFFFFFFFFFFFFFFFFF80007FFFFFFC06
:103BD0003FFC3C1C3FFC3FFFFF0FFFFFFFFC3FFF94
:103BE000FFFFFFFFFFFFFFFFFFFFFFFFFFFFFFFFE5
:103BF000FFFFFFFFFFFFFFFFFFFFFFFF00003FFF93
:103C0000FFFC3FFC3E1C3FFC3FF8FF0FFC3FFF3C2E
:103C10003FE1FFE3FF8FFFFFFFFFFFFFFFFFFFFF1E
:103C2000FFFFFFFFFFFFFFFFFFFFFFFFFFFE0000A3
:103C30001FFFFFFC3FFC3E1C3FFC3C603C01F00FC3
:103C4000C61007007F80FC03FFFFFFFFFFFFFFFFA1
:103C5000FFFFFFFFFFFFFFFFFFFFFFFFFFFFFFFC77
:103C600000000FFFFFFC1FFC3E1C3FFC3C003C0122
:103C7000E007C01006003F007801FFFFFFFFFFFFD5
:103C8000FFFFFFFFFFFFFFFFFFFFFFFFFFFFFFFF44
:103C9000FFF8000007FFFFFC0FFC3E1C3FFC3C0050
:103CA0001C01C003C01006081E007800FFFFFFFFC4
:103CB000FFFFFFFFFFFFFFFFFFFFFFFFFFFFFFFF14
:103CC000FFFFFFF0000007FFFFFE03FC3E1C3FFC70
:103CD0003C0C1F0FC3C3C1FC3E7E1E1F70F0FFFFD4
:103CE000FFFFFFFFFFFFFFFFFFFFFFFFFFFFFFFFE4
:103CF000FFFFFFFFFFF8000007FFFFFE00FC3C1C7A
:103D00003FFC3C1E1F0FC7E3C1FC3FFE1C3FF0F809
:103D10007FFFFFFFFFFFFFFFFFFFFFFFFFFFFFFF33
:103D2000FFFFFFFFFFFFFFFC00000FFFFFFF807C96
:103D3000003C3FFC3C3E1F0F87E3C3FC3FFE1C3FA3
:103D4000F1F87FFFFFFFFFFFFFFFFFFFFFFFFFFF18
:103D5000FFFFFFFFFFFFFFFFFFFC00001FFFFFFF54
:103D6000C03C007C3FFC3C3F1F0F8001C3FC3FE098
:103D70001C3FE0007FFFFFFFFFFFFFFFFFFFFFFF94
:103D8000FFFFFFFFFFFFFFFFFFFFFFFE00003FFF02
:103D9000FFFFF03C00FC3FFC3C3E1F0F8001C3FCDA
:103DA0003F001C3FE0007FFFFFFFFFFFFFFFFFFF23
:103DB000FFFFFFFFFFFFFFFFFFFFFFFFFFFF000011
:103DC0007FFFFFFFFC3C07FC3FFC3C3E1F0F8003D6
:103DD000C3FC3E001C3FE000FFFFFFFFFFFFFFFFB3
:103DE000FFFFFFFFFFFFFFFFFFFFFFFFFFFFFFFFE3
:103DF0008000FFFFFFFFFC1C3FFC3FFC3C3F1F0F10
:103E000087FFC3FC3E1E1C3FE1FFFFFFFFFFFFFFDC
:103E1000FFFFFFFFFFFFFFFFFFFFFFFFFFFFFFFFB2
:103E2000FFFFC001FFFFFFFFFC3C3FFC3FFC3C3FAE
:103E30001F0F87FFC3FC3C3E1C3FE1FFFFFFFFFF5E
:103E4000FFFFFFFFFFFFFFFFFFFFFFFFFFFFFFFF82
:103E5000FFFFFFFFE001FFFFFFFDFC3C3FFC3FFCDD
:103E60003C3F1F0FC3FFC3FC3C3E1C1F70FFFFFF06
:103E7000FFFFFFFFFFFFFFFFFFFFFFFFFFFFFFFF52
:103E8000FFFFFFFFFFFFF003FFFFFFFC783C3FFC5D
:103E90003FFC3C3F1F0FC3FFC3FC3C3C1E0E70FEAB
:103EA000FFFFFFFFFFFFFFFFFFFFFFFFFFFFFFFF22
:103EB000FFFFFFFFFFFFFFFFF807FFFFFFFC003CD6
:103EC0003FFC3FFC3C3F1F01C003C3FC3E001E0003
:103ED0007010FFFFFFFFFFFFFFFFFFFFFFFFFFFF70
:103EE000FFFFFFFFFFFFFFFFFFFFFC0FFFFFFFFCD8
:103EF000007C3FFC3FFC3C3F1F01E003C3FC3E0055
:103F00001F007800FFFFFFFFFFFFFFFFFFFFFFFF26
:103F1000FFFFFFFFFFFFFFFFFFFFFFFFFE1FFFFF92
:103F2000FFFE00FC3FFC3FFC3C3F1F81F007C3FC51
:103F30003F031F80FC00FFFFFFFFFFFFFFFFFFFFAE
:103F4000FFFFFFFFFFFFFFFFFFFFFFFFFFFFFF3F41
:103F5000FFFFFFFF87FFFFFFFFFFFFFFFFE3FE1FE6
:103F6000FFFFFFC7FFE3FF07FFFFFFFFFFFFFFFFAD
:103F7000FFFFFFFFFFFFFFFFFFFFFFFFFFFFFFFF51
:103F8000FFFFFFFFFFFFFFFFFFFFFFFFFFFFFFFF41
:103F9000FFFFFFFFFFFFFFFFFFFFFFFFFFFFFFFF31
:103FA000FFFFFFFFFFFFFFFFFFFFFFFFFFFFFFFF21
:1044F000FFFFE007FFFFFFFF8001FFFFFFFE03C09C
:104500007FFFFFFC07F03FFFFFF80FF81FFFFFF0F2
:104510001FFC0FFFFFE03FFC07FFFFC07FFE03FF14
:10452000FFC07FFE03FFFF80FFFF01FFFF00FFFFD3
:1045300001FFFF01FFFF80FFFE01FFFF80FFFE0183
:10454000FFFF807FFE03FFFF807FFC03FFFFC03F74
:10455000FC03FFFFC03FFC03FFFFC03FF803FFFF6A
:10456000C03FF807FFFFC01FF807FFFFE01FF80775
:10457000FFFFE01FF807FFFFE01FF007FFFFE01F4E
:10458000F007FFFFE01FF007FFFFE00FF007FFFF5E
:10459000E00FF007FFFFE00FF00FFFFFE00FF00F5D
:1045A000FFFFE00FF00FFFFFE00FF00FFFFFE00F46
:1045B000F00FFFFFE00FF00FFFFFE00FF00FFFFF26
:1045C000E00FF00FFFFFE00FF00FFFFFE00FF00F25
:1045D000FFFFE00FF007FFFFE00FF007FFFFE00F26
:1045E000F007FFFFE01FF007FFFFE01FF007FFFFEE
:1045F000E01FF807FFFFE01FF807FFFFE01FF807C5
:10460000FFFFE01FF807FFFFC01FF803FFFFC03FD9
:10461000FC03FFFFC03FFC03FFFFC03FFC03FFFFA5
:10462000C07FFE03FFFF807FFE01FFFF807FFE0152
:10463000FFFF80FFFF01FFFF80FFFF00FFFF01FF83
:10464000FF80FFFF01FFFF807FFE03FFFFC07FFEB3
:1046500003FFFFE03FFC07FFFFF01FFC0FFFFFF829
:104660001FF81FFFFFFC07F03FFFFFFE03C07FFFA7
:10467000FFFF8001FFFFFFFFE007FFFFFFFFFFFFDE
:10468000FFFFFFFFFFFFFFFFFFFFFFFFFFFFFFFF3A
:10469000FFFFFFFFFFFFFFFFFFFFFFFFFFFFFFFF2A
:1046A000FFFFFFFFFFFFFFFFFFFFFFFFFFFFFFFF1A
:1046B000FFFFFFFFFFFFFFFFFFFFFFFFFFFFFFFF0A
:1046C000FFFFFFFFFFFFFFFFFFFFFFFFFFFFFFFFFA
:1046D000FFFFFFFFFFFFFFFFFFFFFFFFFFFFFFFFEA
:1046E000FFFFFFFFFFFFFFFFFFFFFFFFFFFFFFFFDA
:1046F000FFFFFFFFFFFFFFFFFFFFFFFFFFFFFFFFCA
:10470000FFFFFFFFFFFFFFFFFFFFFFFFFFFFFFFFB9
:10471000FFFFFFFFFFFFFFFFFFFFFFFFFFFFFFFFA9
:10472000FFFFFFFFFFFFFFFFFFFFFFFFFFFFFFFF99
:10473000FFFFFFFFFFFFFFFFFFFFFFFFFFFFFFFF89
:10474000FFFFFFFFFFFFFFFFFFFFFFFFFFFFFFFF79
:10475000FFFFFFFFFFFFFFFFFFFFFFFFFFFFFFFF69
:10476000FFFFFF8FFFFFFFFFFF0FFFFFFFFFFE0FAA
:10477000FFFFFFFFFC0FFFFFFFFFF80FFFFFFFFF33
:10478000C00FFFFFFFC0000FFFFFFFC0000FFFFFC4
:10479000FFFFE00FFFFFFFFFF00FFFFFFFFFF80F2E
:1047A000FFFFFFFFF80FFFFFFFFFF80FFFFFFFFF07
:1047B000F80FFFFFFFFFF80FFFFFFFFFF80FFFFFEE
:1047C000FFFFF80FFFFFFFFFF80FFFFFFFFFF80FDE
:1047D000FFFFFFFFF80FFFFFFFFFF80FFFFFFFFFD7
:1047E000F80FFFFFFFFFF80FFFFFFFFFF80FFFFFBE
:1047F000FFFFF80FFFFFFFFFF80FFFFFFFFFF80FAE
:10480000FFFFFFFFF80FFFFFFFFFF80FFFFFFFFFA6
:10481000F80FFFFFFFFFF80FFFFFFFFFF80FFFFF8D
:10482000FFFFF80FFFFFFFFFF80FFFFFFFFFF80F7D
:10483000FFFFFFFFF80FFFFFFFFFF80FFFFFFFFF76
:10484000F80FFFFFFFFFF80FFFFFFFFFF80FFFFF5D
:10485000FFFFF80FFFFFFFFFF80FFFFFFFFFF80F4D
:10486000FFFFFFFFF80FFFFFFFFFF80FFFFFFFFF46
:10487000F80FFFFFFFFFF80FFFFFFFFFF80FFFFF2D
:10488000FFFFF80FFFFFFFFFF80FFFFFFFFFF80F1D
:10489000FFFFFFFFF80FFFFFFFFFF80FFFFFFFFF16
:1048A000F80FFFFFFFFFF80FFFFFFFFFF80FFFFFFD
:1048B000FFFFF80FFFFFFFFFF80FFFFFFFFFF00FF5
:1048C000FFFFFFFFF007FFFFFFFFF007FFFFFFFF06
:1048D000E003FFFFFFFF8000FFFFFFC0000001FFBC
:1048E000FFC0000001FFFFFFFFFFFFFFFFFFFFFF13
:1048F000FFFFFFFFFFFFFFFFFFFFFFFFFFFFFFFFC8
:10490000FFFFFFFFFFFFFFFFFFFFFFFFFFFFFFFFB7
:10491000FFFFFFFFFFFFFFFFFFFFFFFFFFFFFFFFA7
:10492000FFFFFFFFFFFFFFFFFFFFFFFFFFFFFFFF97
:10493000FFFFFFFFFFFFFFFFFFFFFFFFFFFFFFFF87
:10494000FFFFFFFFFFFFFFFFFFFFFFFFFFFFFFFF77
:10495000FFFFFFFFFFFFFFFFFFFFFFFFFFFFFFFF67
:10496000FFFFFFFFFFFFFFFFFFFFFFFFFFFFFFFF57
:10497000FFFFFFFFFFFFFFFFFFFFFFFFFFFFFFFF47
:10498000FFFFFFFFFFFFFFFFFFFFFFFFFFFFFFFF37
:10499000FFFFFFFFFFFFFFFFFFFFFFFFFFFFFFFF27
:1049A000FFFFFFFFFFFFFFFFFFFFFFFFFFFFFFFF17
:1049B000FFFFFFFFFFFFFFFFFFFFFFFFFFFFFFFF07
:1049C000FFFFFFFFFFFFFFFFFFFFFFFFFFFFFFFFF7
:1049D000FFFFE003FFFFFFFF00007FFFFFF80FC0B6
:1049E0001FFFFFF03FF807FFFFC0FFFC03FFFF8141
:1049F000FFFE01FFFF03FFFF01FFFF03FFFF00FFBB
:104A0000FE07FFFF80FFFE07FFFF807FFC07FFFF21
:104A1000807FFC07FFFFC03FFC07FFFFC03FF80798
:104A2000FFFFC03FF803FFFFC03FF803FFFFC03F99
:104A3000F801FFFFC03FF801FFFFC03FF801FFFF93
:104A4000C03FFC01FFFFC03FFC01FFFFC07FFF0331
:104A5000FFFF807FFFFFFFFF807FFFFFFFFF80FFE3
:104A6000FFFFFFFF00FFFFFFFFFF00FFFFFFFFFE55
:104A700001FFFFFFFFFE03FFFFFFFFFC03FFFFFF40
:104A8000FFFC07FFFFFFFFF80FFFFFFFFFF01FFF17
:104A9000FFFFFFE03FFFFFFFFFE07FFFFFFFFFC0E3
:104AA000FFFFFFFFFF81FFFFFFFFFF03FFFFFFFF90
:104AB000FE07FFFFFFFFFC0FFFFFFFFFF81FFFFFD9
:104AC000FFFFF03FFFFFFFFFE07FFFFFFFFFC0FFA3
:104AD000FFFFFFFF81FFFFFFFFFF03FFFFFFFFFE61
:104AE00007FFFFFFFFFE0FFFFFFFFFFC1FFFFFFFA2
:104AF000FFF83FFFFE1FFFF07FFFFE1FFFE0FFFFFD
:104B0000FE3FFFC0FFFFFC3FFF81FFFFFC3FFF8335
:104B1000FFFFFC3FFF07FFFFF83FFE0FFFFFF83FDF
:104B2000FC1FFFFFF03FFC1FFFFFE07FF83FFFFF90
:104B3000807FF0000000007FF0000000007FF000A8
:104B40000000007FF0000000007FF0000000007F08
:104B5000F0000000007FFFFFFFFFFFFFFFFFFFFFF0
:104B6000FFFFFFFFFFFFFFFFFFFFFFFFFFFFFFFF55
:104B7000FFFFFFFFFFFFFFFFFFFFFFFFFFFFFFFF45
:104B8000FFFFFFFFFFFFFFFFFFFFFFFFFFFFFFFF35
:104B9000FFFFFFFFFFFFFFFFFFFFFFFFFFFFFFFF25
:104BA000FFFFFFFFFFFFFFFFFFFFFFFFFFFFFFFF15
:104BB000FFFFFFFFFFFFFFFFFFFFFFFFFFFFFFFF05
:104BC000FFFFFFFFFFFFFFFFFFFFFFFFFFFFFFFFF5
:104BD000FFFFFFFFFFFFFFFFFFFFFFFFFFFFFFFFE5
:104BE000FFFFFFFFFFFFFFFFFFFFFFFFFFFFFFFFD5
:104BF000FFFFFFFFFFFFFFFFFFFFFFFFFFFFFFFFC5
:104C0000FFFFFFFFFFFFFFFFFFFFFFFFFFFFFFFFB4
:104C1000FFFFFFFFFFFFFFFFFFFFFFFFFFFFFFFFA4
:104C2000FFFFFFFFFFFFFFFFFFFFFFFFFFFFFFFF94
:104C3000FFFFFFFFFFFFFFFFFFFFFFFFFFFFFFFF84
:104C4000FFFFC00FFFFFFFFC0001FFFFFFF01F0091
:104C50007FFFFFE0FFE03FFFFFC1FFF01FFFFF838B
:104C6000FFF80FFFFF03FFFC07FFFE03FFFC03FF3E
:104C7000FE03FFFE03FFFC03FFFE01FFFC03FFFF3B
:104C800001FFFC03FFFF00FFFC01FFFF00FFFC0131
:104C9000FFFF00FFFC01FFFF00FFFC01FFFF00FF23
:104CA000FE03FFFF00FFFF03FFFF00FFFFFFFFFF0B
:104CB00000FFFFFFFFFF00FFFFFFFFFF01FFFFFF00
:104CC000FFFE01FFFFFFFFFE01FFFFFFFFFE03FFEF
:104CD000FFFFFFFC07FFFFFFFFF807FFFFFFFFF0ED
:104CE0000FFFFFFFFFE01FFFFFFFFFC07FFFFFFF82
:104CF000FE01FFFFFFFFC007FFFFFFFFC001FFFF37
:104D0000FFFFFF007FFFFFFFFFE01FFFFFFFFFF838
:104D10000FFFFFFFFFFC07FFFFFFFFFE03FFFFFF8B
:104D2000FFFF01FFFFFFFFFF00FFFFFFFFFF80FF0F
:104D3000FFFFFFFF807FFFFFFFFFC07FFFFFFFFF41
:104D4000C03FFFFFFFFFC03FFFFFFFFFC03FFFFF70
:104D5000FFFFC01FFFFFFFFFC01FFFFFFFFFC01FC0
:104D6000FF07FFFFC01FFE03FFFFC01FFC03FFFF85
:104D7000C01FF801FFFFC03FF801FFFFC03FF8016F
:104D8000FFFFC03FF801FFFFC03FF803FFFF807F38
:104D9000F803FFFF807FFC03FFFF80FFFC03FFFFA2
:104DA00001FFFE03FFFE03FFFF03FFFE03FFFF8182
:104DB000FFFC07FFFFC0FFF01FFFFFF01F803FFF5A
:104DC000FFFC0000FFFFFFFF800FFFFFFFFFFFFF63
:104DD000FFFFFFFFFFFFFFFFFFFFFFFFFFFFFFFFE3
:104DE000FFFFFFFFFFFFFFFFFFFFFFFFFFFFFFFFD3
:104DF000FFFFFFFFFFFFFFFFFFFFFFFFFFFFFFFFC3
:104E0000FFFFFFFFFFFFFFFFFFFFFFFFFFFFFFFFB2
:104E1000FFFFFFFFFFFFFFFFFFFFFFFFFFFFFFFFA2
:104E2000FFFFFFFFFFFFFFFFFFFFFFFFFFFFFFFF92
:104E3000FFFFFFFFFFFFFFFFFFFFFFFFFFFFFFFF82
:104E4000FFFFFFFFFFFFFFFFFFFFFFFFFFFFFFFF72
:104E5000FFFFFFFFFFFFFFFFFFFFFFFFFFFFFFFF62
:104E6000FFFFFFFFFFFFFFFFFFFFFFFFFFFFFFFF52
:104E7000FFFFFFFFFFFFFFFFFFFFFFFFFFFFFFFF42
:104E8000FFFFFFFFFFFFFFFFFFFFFFFFFFFFFFFF32
:104E9000FFFFFFFFFFFFFFFFFFFFFFFFFFFFFFFF22
:104EA000FFFFFFFFFFFFFFFFFFFFFFFFFFFFFFFF12
:104EB000FFFFFFFFFFFFFFFFFFF81FFFFFFFFFF8F0
:104EC0001FFFFFFFFFF01FFFFFFFFFF01FFFFFFFB0
:104ED000FFE01FFFFFFFFFC01FFFFFFFFFC01FFF1F
:104EE000FFFFFF801FFFFFFFFF001FFFFFFFFF000F
:104EF0001FFFFFFFFE001FFFFFFFFE101FFFFFFF52
:104F0000FC101FFFFFFFF8301FFFFFFFF8701FFFAF
:104F1000FFFFF0701FFFFFFFE0F01FFFFFFFE1F05A
:104F20001FFFFFFFC1F01FFFFFFF83F01FFFFFFF09
:104F300083F01FFFFFFF07F01FFFFFFF0FF01FFFB2
:104F4000FFFE0FF01FFFFFFC1FF01FFFFFFC3FF0F5
:104F50001FFFFFF83FF01FFFFFF07FF01FFFFFF084
:104F60007FF01FFFFFE0FFF01FFFFFE1FFF01FFFDB
:104F7000FFC1FFF01FFFFF83FFF01FFFFF87FFF060
:104F80001FFFFF07FFF01FFFFE0FFFF01FFFFE1FB9
:104F9000FFF01FFFFC1FFFF01FFFFC3FFFF01FFF94
:104FA000F83FFFF01FFFF07FFFF01FFFF0FFFFF063
:104FB0001FFFE0FFFFF01FFFE00000000007E00020
:104FC00000000007FFFFFFF01FFFFFFFFFF01FFFC4
:104FD000FFFFFFF01FFFFFFFFFF01FFFFFFFFFF0CE
:104FE0001FFFFFFFFFF01FFFFFFFFFF01FFFFFFF8F
:104FF000FFF01FFFFFFFFFF01FFFFFFFFFF01FFF8E
:10500000FFFFFFF01FFFFFFFFFF01FFFFFFFFFF09D
:105010001FFFFFFFFFF01FFFFFFFFFE00FFFFFFF7E
:10502000FFE00FFFFFFFFFC007FFFFFFC000000F03
:10503000FFFFC000000FFFFFC000000FFFFFFFFFDA
:10504000FFFFFFFFFFFFFFFFFFFFFFFFFFFFFFFF70
:10505000FFFFFFFFFFFFFFFFFFFFFFFFFFFFFFFF60
:10506000FFFFFFFFFFFFFFFFFFFFFFFFFFFFFFFF50
:10507000FFFFFFFFFFFFFFFFFFFFFFFFFFFFFFFF40
:10508000FFFFFFFFFFFFFFFFFFFFFFFFFFFFFFFF30
:10509000FFFFFFFFFFFFFFFFFFFFFFFFFFFFFFFF20
:1050A000FFFFFFFFFFFFFFFFFFFFFFFFFFFFFFFF10
:1050B000FFFFFFFFFFFFFFFFFFFFFFFFFFFFFFFF00
:1050C000FFFFFFFFFFFFFFFFFFFFFFFFFFFFFFFFF0
:1050D000FFFFFFFFFFFFFFFFFFFFFFFFFFFFFFFFE0
:1050E000FFFFFFFFFFFFFFFFFFFFFFFFFFFFFFFFD0
:1050F000FFFFFFFFFFFFFFFFFFFFFFFFFFFFFFFFC0
:10510000FFFFFFFFFFFFFFFFFFFFFFFFFFFFFFFFAF
:10511000FFFFFFFFFFFFFFFFFFFFFFFFFFFFFFFF9F
:10512000FFFFFFFFFFFFFF800000003FFF80000048
:10513000007FFF800000007FFF800000007FFF8075
:105140000000007FFF87FFFFFFFFFF87FFFFFFFFDC
:10515000FF87FFFFFFFFFF87FFFFFFFFFF87FFFFC7
:10516000FFFFFF87FFFFFFFFFF87FFFFFFFFFF87B7
:10517000FFFFFFFFFF87FFFFFFFFFF87FFFFFFFF2F
:10518000FF87FFFFFFFFFF07FFFFFFFFFF07FFFF97
:10519000FFFFFF07FFFFFFFFFF07FFFFFFFFFF0707
:1051A000FFFFFFFFFF0FFFFFFFFFFF0FFFFFFFFFEF
:1051B000FF0FF001FFFFFF0F80007FFFFF0E0000D9
:1051C0001FFFFF0C00000FFFFF0807E007FFFF00B5
:1051D0003FF803FFFF00FFFC01FFFF01FFFE00FFA0
:1051E000FF03FFFF00FFFF03FFFF007FFF07FFFF3D
:1051F000807FFFCFFFFF803FFFFFFFFFC03FFFFF2C
:10520000FFFFC03FFFFFFFFFC03FFFFFFFFFC03FAB
:10521000FFFFFFFFE01FFFFFFFFFE01FFFFFFFFF9C
:10522000E01FFFFFFFFFE01FFFFFFFFFE01FFFFF8B
:10523000FFFFE01FFFFFFFFFE01FFF07FFFFE01F73
:10524000FC03FFFFE03FFC01FFFFE03FF801FFFF31
:10525000E03FF801FFFFC03FF801FFFFC03FF8014A
:10526000FFFFC07FF803FFFFC07FF807FFFF807FCD
:10527000FC07FFFF80FFFC07FFFF80FFFE07FFFF2B
:1052800001FFFE07FFFE03FFFF03FFFE03FFFF8199
:10529000FFFC07FFFFE0FFF00FFFFFF00FC03FFF35
:1052A000FFFC0000FFFFFFFF8007FFFFFFFFFFFF86
:1052B000FFFFFFFFFFFFFFFFFFFFFFFFFFFFFFFFFE
:1052C000FFFFFFFFFFFFFFFFFFFFFFFFFFFFFFFFEE
:1052D000FFFFFFFFFFFFFFFFFFFFFFFFFFFFFFFFDE
:1052E000FFFFFFFFFFFFFFFFFFFFFFFFFFFFFFFFCE
:1052F000FFFFFFFFFFFFFFFFFFFFFFFFFFFFFFFFBE
:10530000FFFFFFFFFFFFFFFFFFFFFFFFFFFFFFFFAD
:10531000FFFFFFFFFFFFFFFFFFFFFFFFFFFFFFFF9D
:10532000FFFFFFFFFFFFFFFFFFFFFFFFFFFFFFFF8D
:10533000FFFFFFFFFFFFFFFFFFFFFFFFFFFFFFFF7D
:10534000FFFFFFFFFFFFFFFFFFFFFFFFFFFFFFFF6D
:10535000FFFFFFFFFFFFFFFFFFFFFFFFFFFFFFFF5D
:10536000FFFFFFFFFFFFFFFFFFFFFFFFFFFFFFFF4D
:10537000FFFFFFFFFFFFFFFFFFFFFFFFFFFFFFFF3D
:10538000FFFFFFFFFFFFFFFFFFFFFFFFFFFFFFFF2D
:10539000FFFFFE007FFFFFFFE0001FFFFFFF80FC1D
:1053A00007FFFFFF03FE03FFFFFC0FFE01FFFFF8F7
:1053B0001FFE01FFFFF03FFE00FFFFE07FFE00FF4A
:1053C000FFE0FFFE00FFFFC0FFFE00FFFF81FFFECA
:1053D00000FFFF81FFFF00FFFF01FFFF81FFFF03D1
:1053E000FFFFFFFFFE03FFFFFFFFFE03FFFFFFFFC7
:1053F000FC03FFFFFFFFFC07FFFFFFFFFC07FFFFB2
:10540000FFFFFC07FFFFFFFFF807FFFFFFFFF807A5
:10541000FFFFFFFFF807FFFFFFFFF807FFFFFFFF9A
:10542000F807FC00FFFFF007E0001FFFF007800017
:105430000FFFF007000003FFF00C01F001FFF00C7C
:105440000FFC00FFF0081FFE00FFF0003FFF007F91
:10545000F0007FFF807FF000FFFFC03FF001FFFF03
:10546000C03FF003FFFFE01FF003FFFFE01FF00766
:10547000FFFFE01FF007FFFFE01FF00FFFFFF00F3F
:10548000F00FFFFFF00FF00FFFFFF00FF00FFFFF27
:10549000F00FF007FFFFF00FF007FFFFF00FF0072E
:1054A000FFFFF00FF807FFFFF00FF807FFFFF00F07
:1054B000F807FFFFF00FF807FFFFF01FFC03FFFFE7
:1054C000F01FFC03FFFFF01FFC03FFFFE01FFE03C4
:1054D000FFFFE01FFE01FFFFE03FFE01FFFFE03F97
:1054E000FF00FFFFE07FFF80FFFFC07FFF807FFFA7
:1054F000C0FFFFC03FFF81FFFFE03FFF03FFFFF062
:105500000FFE07FFFFF807FC0FFFFFFC01F01FFF76
:10551000FFFF00007FFFFFFFE003FFFFFFFFFFFF34
:10552000FFFFFFFFFFFFFFFFFFFFFFFFFFFFFFFF8B
:10553000FFFFFFFFFFFFFFFFFFFFFFFFFFFFFFFF7B
:10554000FFFFFFFFFFFFFFFFFFFFFFFFFFFFFFFF6B
:10555000FFFFFFFFFFFFFFFFFFFFFFFFFFFFFFFF5B
:10556000FFFFFFFFFFFFFFFFFFFFFFFFFFFFFFFF4B
:10557000FFFFFFFFFFFFFFFFFFFFFFFFFFFFFFFF3B
:10558000FFFFFFFFFFFFFFFFFFFFFFFFFFFFFFFF2B
:10559000FFFFFFFFFFFFFFFFFFFFFFFFFFFFFFFF1B
:1055A000FFFFFFFFFFFFFFFFFFFFFFFFFFFFFFFF0B
:1055B000FFFFFFFFFFFFFFFFFFFFFFFFFFFFFFFFFB
:1055C000FFFFFFFFFFFFFFFFFFFFFFFFFFFFFFFFEB
:1055D000FFFFFFFFFFFFFFFFFFFFFFFFFFFFFFFFDB
:1055E000FFFFFFFFFFFFFFFFFFFFFFFFFFFFFFFFCB
:1055F000FFFFFFFFFFFFFFFFFFFFFFFFFFFFFFFFBB
:10560000FFFFFFFFFFFFFF000000001FFF00000083
:10561000001FFE000000001FFE000000001FFE0033
:105620000000003FFE00FFFFF07FFE03FFFFF07F62
:10563000FE07FFFFE0FFFC0FFFFFC0FFFC1FFFFFA7
:10564000C1FFFC1FFFFF81FFFC3FFFFF83FFFC3F0B
:10565000FFFF07FFFC3FFFFF07FFF87FFFFE0FFF85
:10566000F87FFFFE0FFFFFFFFFFC1FFFFFFFFFFCA8
:105670001FFFFFFFFFF83FFFFFFFFFF83FFFFFFFA8
:10568000FFF03FFFFFFFFFF07FFFFFFFFFE07FFF27
:10569000FFFFFFE0FFFFFFFFFFC0FFFFFFFFFFC1B6
:1056A000FFFFFFFFFF81FFFFFFFFFF81FFFFFFFF06
:1056B000FF03FFFFFFFFFF03FFFFFFFFFE07FFFFEB
:1056C000FFFFFE07FFFFFFFFFE07FFFFFFFFFC07D7
:1056D000FFFFFFFFFC0FFFFFFFFFF80FFFFFFFFFC4
:1056E000F80FFFFFFFFFF81FFFFFFFFFF01FFFFF97
:1056F000FFFFF01FFFFFFFFFE01FFFFFFFFFE01FA7
:10570000FFFFFFFFE03FFFFFFFFFE03FFFFFFFFF67
:10571000C03FFFFFFFFFC03FFFFFFFFFC03FFFFF96
:10572000FFFFC03FFFFFFFFF803FFFFFFFFF803F06
:10573000FFFFFFFF803FFFFFFFFF803FFFFFFFFFF7
:10574000803FFFFFFFFF803FFFFFFFFF003FFFFFA6
:10575000FFFF003FFFFFFFFF003FFFFFFFFF003F96
:10576000FFFFFFFF003FFFFFFFFF003FFFFFFFFFC7
:10577000003FFFFFFFFF003FFFFFFFFF803FFFFFF6
:10578000FFFF803FFFFFFFFFE07FFFFFFFFFFFFF07
:10579000FFFFFFFFFFFFFFFFFFFFFFFFFFFFFFFF19
:1057A000FFFFFFFFFFFFFFFFFFFFFFFFFFFFFFFF09
:1057B000FFFFFFFFFFFFFFFFFFFFFFFFFFFFFFFFF9
:1057C000FFFFFFFFFFFFFFFFFFFFFFFFFFFFFFFFE9
:1057D000FFFFFFFFFFFFFFFFFFFFFFFFFFFFFFFFD9
:1057E000FFFFFFFFFFFFFFFFFFFFFFFFFFFFFFFFC9
:1057F000FFFFFFFFFFFFFFFFFFFFFFFFFFFFFFFFB9
:10580000FFFFFFFFFFFFFFFFFFFFFFFFFFFFFFFFA8
:10581000FFFFFFFFFFFFFFFFFFFFFFFFFFFFFFFF98
:10582000FFFFFFFFFFFFFFFFFFFFFFFFFFFFFFFF88
:10583000FFFFFFFFFFFFFFFFFFFFFFFFFFFFFFFF78
:10584000FFFFFFFFFFFFFFFFFFFFFFFFFFFFFFFF68
:10585000FFFFFFFFFFFFFFFFFFFFFFFFFFFFFFFF58
:10586000FFFFFFFFFFFFFFFFFFFFFFFFFFFFFFFF48
:10587000FFFFC003FFFFFFFE00007FFFFFF80FE008
:105880001FFFFFE07FFC0FFFFFC0FFFE07FFFF8150
:10589000FFFF03FFFF03FFFF81FFFE07FFFFC0FFC6
:1058A000FE07FFFFC07FFC0FFFFFE07FFC0FFFFF45
:1058B000E03FF80FFFFFE03FF80FFFFFE03FF80F7A
:1058C000FFFFF03FF80FFFFFF03FF80FFFFFF03F43
:1058D000F80FFFFFF03FF80FFFFFF03FF807FFFF63
:1058E000E03FF803FFFFE03FFC03FFFFE07FFC0128
:1058F000FFFFC07FFE00FFFFC0FFFE007FFF80FFB5
:10590000FF001FFF81FFFF800FFF03FFFFC003FEAB
:1059100007FFFFE000FC0FFFFFF000301FFFFFF864
:1059200000007FFFFFFE0000FFFFFFFE0000FFFF03
:10593000FFF800007FFFFFF030001FFFFFE07C005A
:105940000FFFFF80FF0007FFFF01FFC003FFFF0302
:10595000FFE001FFFE03FFF800FFFC07FFFC00FF74
:10596000FC0FFFFE007FF80FFFFF007FF81FFFFF17
:10597000803FF01FFFFFC03FF01FFFFFC01FF01F61
:10598000FFFFE01FF03FFFFFE01FE03FFFFFF01FC2
:10599000E03FFFFFF01FE03FFFFFF01FE03FFFFF92
:1059A000F01FE03FFFFFF01FF03FFFFFF01FF03F51
:1059B000FFFFF01FF01FFFFFF03FF81FFFFFE03F6A
:1059C000F81FFFFFE07FFC0FFFFFE07FFC07FFFFFA
:1059D000C0FFFE07FFFF81FFFF03FFFF83FFFF8084
:1059E000FFFE07FFFFE07FFC0FFFFFF00FE01FFF50
:1059F000FFFC00007FFFFFFFC007FFFFFFFFFFFF6F
:105A0000FFFFFFFFFFFFFFFFFFFFFFFFFFFFFFFFA6
:105A1000FFFFFFFFFFFFFFFFFFFFFFFFFFFFFFFF96
:105A2000FFFFFFFFFFFFFFFFFFFFFFFFFFFFFFFF86
:105A3000FFFFFFFFFFFFFFFFFFFFFFFFFFFFFFFF76
:105A4000FFFFFFFFFFFFFFFFFFFFFFFFFFFFFFFF66
:105A5000FFFFFFFFFFFFFFFFFFFFFFFFFFFFFFFF56
:105A6000FFFFFFFFFFFFFFFFFFFFFFFFFFFFFFFF46
:105A7000FFFFFFFFFFFFFFFFFFFFFFFFFFFFFFFF36
:105A8000FFFFFFFFFFFFFFFFFFFFFFFFFFFFFFFF26
:105A9000FFFFFFFFFFFFFFFFFFFFFFFFFFFFFFFF16
:105AA000FFFFFFFFFFFFFFFFFFFFFFFFFFFFFFFF06
:105AB000FFFFFFFFFFFFFFFFFFFFFFFFFFFFFFFFF6
:105AC000FFFFFFFFFFFFFFFFFFFFFFFFFFFFFFFFE6
:105AD000FFFFFFFFFFFFFFFFFFFFFFFFFFFFFFFFD6
:105AE000FFFF800FFFFFFFFC0001FFFFFFF00FC073
:105AF0007FFFFFE03FF01FFFFFC0FFFC0FFFFF81B4
:105B0000FFFE07FFFF01FFFE07FFFE03FFFF03FF8E
:105B1000FE07FFFF01FFFC07FFFF81FFF807FFFF04
:105B200080FFF80FFFFFC0FFF80FFFFFC07FF00FEF
:105B3000FFFFC07FF00FFFFFC03FF00FFFFFC03F30
:105B4000F01FFFFFE03FF01FFFFFE03FE01FFFFF00
:105B5000E01FE01FFFFFE01FE01FFFFFE01FE01F4F
:105B6000FFFFE01FE01FFFFFE01FE01FFFFFE01F40
:105B7000F00FFFFFE01FF00FFFFFC01FF00FFFFF50
:105B8000C01FF00FFFFF801FF00FFFFF801FF00707
:105B9000FFFF001FF807FFFF001FF803FFFE001FB5
:105BA000F803FFFC001FFC01FFF8001FFC00FFF0E2
:105BB000201FFE007FE0601FFF001F00E01FFF802E
:105BC0000001C01FFFE00003C01FFFF0000FC01F57
:105BD000FFFE003FC01FFFFFFFFFC03FFFFFFFFFB3
:105BE000C03FFFFFFFFFC03FFFFFFFFFC03FFFFFC2
:105BF000FFFF803FFFFFFFFF807FFFFFFFFF807FF2
:105C0000FFFFFFFF807FFFFFFFFF80FFFFFFFFFF22
:105C100000FFFFFFFFFF01FFFFFFFFFF01FFFF830B
:105C2000FFFE03FFFF01FFFE03FFFE00FFFC07FF77
:105C3000FE00FFFC07FFFE00FFF80FFFFE00FFF86D
:105C40001FFFFE00FFF01FFFFE00FFE03FFFFF0011
:105C5000FFC07FFFFF807F81FFFFFFC03C03FFFF8E
:105C6000FFF0000FFFFFFFFC007FFFFFFFFFFFFFC4
:105C7000FFFFFFFFFFFFFFFFFFFFFFFFFFFFFFFF34
:105C8000FFFFFFFFFFFFFFFFFFFFFFFFFFFFFFFF24
:105C9000FFFFFFFFFFFFFFFFFFFFFFFFFFFFFFFF14
:105CA000FFFFFFFFFFFFFFFFFFFFFFFFFFFFFFFF04
:105CB000FFFFFFFFFFFFFFFFFFFFFFFFFFFFFFFFF4
:105CC000FFFFFFFFFFFFFFFFFFFFFFFFFFFFFFFFE4
:105CD000FFFFFFFFFFFFFFFFFFFFFFFFFFFFFFFFD4
:105CE000FFFFFFFFFFFFFFFFFFFFFFFFFFFFFFFFC4
:105CF000FFFFFFFFFFFFFFFFFFFFFFFFFFFFFFFFB4
:105D0000FFFFFFFFFFFFFFFFFFFFFFFFFFFFFFFFA3
:105D1000FFFFFFFFFFFFFFFFFFFFFFFFFFFFFFFF93
:105D2000FFFFFFFFFFFFFFFFFFFFFFFFFFFFFFFF83
:105D3000FFFFFFFFFFFFFFFFFFFFFFFFFFFFFFFF73
:105D4000FFFFFFFFFFFFFFFFFFFFFFFFFFFFFFFF63
:105D5000FFFFFFFFFFFFFFFFFFFFFFFFFFFFFFFF53
:105D6000FFFFFFFFFFFFFFFFFFFFFFFFFFFFFFFF43
:105D7000FFFFFFFFFFFFF00FFFFFFFFFF00FFFFF31
:105D8000FFFFC003FFFFFFFFC003FFFFFFFF000097
:105D9000FFFFFFFF0000FFFFFFFF0000FFFFFFFF0F
:105DA0000000FFFFFFFF0000FFFFFFFF0000FFFFFD
:105DB000FFFFC003FFFFFFFFC003FFFFFFFFF00F68
:105DC000FFFFFFFFF00FFFFFFFFFFFFFFFFFFFFFE2
:105DD000FFFFFFFFFFFFFFFFFFFFFFFFFFFFFFFFD3
:105DE000FFFFFFFFFFFFFFFFFFFFFFFFFFFFFFFFC3
:105DF000FFFFFFFFFFFFFFFFFFFFFFFFFFFFFFFFB3
:105E0000FFFFFFFFFFFFFFFFFFFFFFFFFFFFFFFFA2
:105E1000FFFFFFFFFFFFFFFFFFFFFFFFFFFFFFFF92
:105E2000FFFFFFFFFFFFFFFFFFFFFFFFFFFFFFFF82
:105E3000FFFFFFFFFFFFFFFFFFFFFFFFFFFFFFFF72
:105E4000FFFFFFFFFFFFFFFFFFFFFFFFFFFFFFFF62
:105E5000FFFFFFFFFFFFFFFFFFFFF00FFFFFFFFF51
:105E6000F00FFFFFFFFFC003FFFFFFFFC003FFFFB7
:105E7000FFFF0000FFFFFFFF0000FFFFFFFF00002C
:105E8000FFFFFFFF0000FFFFFFFF0000FFFFFFFF1E
:105E90000000FFFFFFFFC003FFFFFFFFC003FFFF86
:105EA000FFFFF00FFFFFFFFFF00FFFFFFFFFFFFF00
:105EB000FFFFFFFFFFFFFFFFFFFFFFFFFFFFFFFFF2
:105EC000FFFFFFFFFFFFFFFFFFFFFFFFFFFFFFFFE2
:105ED000FFFFFFFFFFFFFFFFFFFFFFFFFFFFFFFFD2
:105EE000FFFFFFFFFFFFFFFFFFFFFFFFFFFFFFFFC2
:1065A000FFFF80000000000000000000000000006D
:1065B00000000000000000000000000000000000DB
:1065C0000000000000000000000000000000001FAC
:1065D000FFFFFFFF8000000000000000000000003F
:1065E00000000000000000000000000000000000AB
:1065F000000000000000000000000000000000009B
:10660000001FFFFFFFFF80000000000000000000EF
:10661000000000000000000000000000000000007A
:10662000000000000000000000000000000000006A
:106630000000001FFFFFFFFF8000000000000000BF
:10664000000000000000000000000000000000004A
:10665000000000000000000000000000000000003A
:1066600000000000001FFFFFFFFF8000000000008F
:10667000000000000000000000000000000000001A
:10668000000000000000000000000000000000000A
:10669000000000000000001FFFFFFFFF800000005F
:1066A00000000000000000000000000000000000EA
:1066B00000000000000000000000000000000000DA
:1066C0000000000000000000001FFFFFFFFF80002F
:1066D00000000000000000000000000000000000BA
:1066E00000000000000000000000000000000000AA
:1066F00000000000000000000000001FFFFFFFFF7F
:10670000800000000007FFC000FFFFFFE07FFFFFE9
:10671000F81FF8007FC0001FFFC000FFFFFC001F34
:10672000FFFFFE0003FF8003FFFFFFF8001FFFFFD6
:10673000FFFF80000000003FFFF001FFFFFFE07F50
:10674000FFFFF03FF800FFC000FFFFF001FFFFFF79
:10675000801FFFFFFC0007FF8003FFFFFFF8001F03
:10676000FFFFFFFF8000000000FFFFF801FFFFFFB9
:10677000C07FFFFFF03FF800FFC003FFFFF801FFFD
:10678000FFFFC01FFFFFFC000FFF8003FFFFFFF8AC
:10679000001FFFFFFFFF8000000001FFFFFC01FF63
:1067A000FFFFC0FFFFFFF03FFC00FF800FFFFFF87F
:1067B00001FFFFFFC03FFFFFFC000FFF8007FFFF4F
:1067C000FFF8001FFFFFFFFF8000000003FFFFFC3A
:1067D00003FFFFFFC0FFFFFFE07FFC00FF801FFF04
:1067E000FFFC03FFFFFFE03FFFFFFC001FFF8007F0
:1067F000FFFFFFF0001FFFFFFFFF8000000007FF0B
:10680000FFFE03FFFFFFC1FFFFFFE07FFC01FF80F2
:106810003FFFFFFC03FFFFFFE03FFFFFF8003FFFEC
:106820008007FFFFFFF0001FFFFFFFFF8000000059
:106830000FFE1FFE03FFFFFF81FFFFFFE07FFC0154
:10684000FF807FFFFFFC03FFFFFFE07FFFFFF800FB
:106850003FFF800FFFFFFFF0001FFFFFFFFF8000E3
:1068600000000FF80FFE07FFFFFF81FFFFFFC0FFD3
:10687000FE03FF00FFFFFFFC07FF01FFE07FFFFFBC
:10688000F8007FFF800FFFFFFFE0001FFFFFFFFF0B
:10689000800000001FF80FFE07FE000001FF8000CF
:1068A00000FFFE03FF01FFE01FFC07FE00FFE07F8B
:1068B000E0000000FFFF800003FF8000001FFFFFDB
:1068C000FFFF800000001FF007FC07FE000003FF31
:1068D000000000FFFE03FF01FFC00FFC07FE00FFEA
:1068E000E0FFE0000000FFFFC00003FF0000001F0A
:1068F000FFFFFFFF800000003FF806000FFE0000D2
:1069000003FF000001FFFF03FE03FF800FC00FFE27
:1069100000FFC0FFC0000001FFFFC00003FF000038
:10692000001FFFFFFFFF800000003FFE00000FFC84
:10693000000003FF000001FFFF07FE07FF00080043
:106940000FFC00FFC0FFC0000003FE7FC00007FF78
:106950000000001FFFFFFFFF800000003FFFE0007E
:106960000FFC000007FF000001FFFF07FE07FE000D
:1069700000000FFC01FF81FFC0000003FE7FC0008C
:1069800007FE0000001FFFFFFFFF800000003FFF29
:10699000FC001FFC000007FF000001FFFF87FC0F49
:1069A000FE0000001FFC03FF81FFC0000007FCFF8A
:1069B000C00007FE0000001FFFFFFFFF8000000077
:1069C0003FFFFF001FFFFFF807FFFFFE03FFFF8FE2
:1069D000FC0FFC0000001FFC1FFF01FFFFFF800FEA
:1069E000F8FFC0000FFE0000001FFFFFFFFF800048
:1069F00000001FFFFF801FFFFFF80FFFFFFE03FFD8
:106A0000FF8FFC1FFC07FFF81FFFFFFE01FFFFFFCA
:106A1000800FF8FFC0000FFC0000001FFFFFFFFF0A
:106A2000800000001FFFFFC01FFFFFF80FFFFFFCEB
:106A300003FFFFCFF81FF807FFF83FFFFFFC03FF3E
:106A4000FFFF001FF0FFC0000FFC0000001FFFFF52
:106A5000FFFF800000000FFFFFE03FFFFFF00FFF90
:106A6000FFFC07FEFFDFF81FF807FFF03FFFFFF80E
:106A700003FFFFFF003FF0FFC0001FFC0000001FEE
:106A8000FFFFFFFF8000000003FFFFE03FFFFFF07C
:106A90001FFFFFFC07FEFFFFF83FF80FFFF03FFF6F
:106AA000FFE003FFFFFF003FE0FFC0001FF8000012
:106AB000001FFFFFFFFF8000000000FFFFF07FFFCF
:106AC000FFF01FFFFFF807FC7FFFF03FF00FFFF024
:106AD0007FFFFF8007FFFFFE007FC0FFC0001FF8A1
:106AE0000000001FFFFFFFFF80000000001FFFF0FD
:106AF0007FFFFFE01FFFFFF80FFC7FFFF03FF00F6D
:106B0000FFE07FFFFF0007FFFFFE00FFC0FFC000A8
:106B10003FF80000001FFFFFFFFF800000000003A0
:106B2000FFF07FE000003FF800000FFC7FFFF03F28
:106B3000F01FFFE07FE3FFC007FE000000FFC0FF83
:106B4000C0003FF00000001FFFFFFFFF80000000BB
:106B50000000FFE07FE000003FF000000FF87FFF43
:106B6000E07FF01FFFE07FE1FFC00FFE000001FFAC
:106B7000FFFFC0003FF00000001FFFFFFFFF80008D
:106B80000007FE007FE0FFE000003FF000001FF87C
:106B90003FFFE07FF0007FC0FFC1FFE00FFC00007F
:106BA00003FFFFFFC0007FF00000001FFFFFFFFF9B
:106BB00080000007FE007FE0FFC000007FF00000C3
:106BC0001FF83FFFE07FF0007FC0FFC1FFE00FFC38
:106BD000000003FFFFFFC0007FE00000001FFFFF79
:106BE000FFFF80000007FE00FFC0FFC000007FE045
:106BF00000001FF01FFFC07FF8007FC0FFC0FFE054
:106C00001FFC000007FFFFFFC0007FE00000001F27
:106C1000FFFFFFFF80000007FE00FFC1FFC0000074
:106C20007FE000003FF01FFFC07FF801FFC1FFC001
:106C3000FFF01FF800000FFFFFFFC0007FE0000023
:106C4000001FFFFFFFFF80000007FF01FF81FFFF24
:106C5000FFE0FFFFFFF03FF01FFFC03FFF1FFF817E
:106C6000FF80FFF01FFFFFFE0FFFFFFFC000FFC010
:106C70000000001FFFFFFFFF80000007FFC7FF01AC
:106C8000FFFFFFE0FFFFFFF03FE00FFF803FFFFF50
:106C9000FF81FF80FFF03FFFFFFC1FFFFFFFC000F1
:106CA000FFC00000001FFFFFFFFF80000007FFFF85
:106CB000FF03FFFFFFC0FFFFFFF07FE00FFF803FFC
:106CC000FFFFFF03FF80FFF03FFFFFFC3FF000FFEF
:106CD000C000FFC00000001FFFFFFFFF8000000793
:106CE000FFFFFE03FFFFFFC1FFFFFFE07FE00FFF9D
:106CF000801FFFFFFE03FF00FFF03FFFFFFC3FF0A0
:106D000000FFC001FFC00000001FFFFFFFFF800069
:106D10000003FFFFFC03FFFFFFC1FFFFFFE07FC099
:106D200007FF001FFFFFF803FF007FF07FFFFFF862
:106D30007FE000FFC001FF800000001FFFFFFFFF9A
:106D400080000003FFFFF007FFFFFF81FFFFFFE070
:106D5000FFC007FF000FFFFFE007FF007FF87FFF86
:106D6000FFF8FFC000FFC001FF800000001FFFFF11
:106D7000FFFF80000001FFFFC007FFFFFF83FFFF51
:106D8000FFC0FFC007FF0007FFFF8007FE007FF87E
:106D90007FFFFFF9FFC000FFC003FF800000001F5E
:106DA000FFFFFFFF800000007FFF0007FFFFFF8362
:106DB000FFFFFFC0FFC007FF0001FFFE0007FE004E
:106DC0007FF8FFFFFFF1FF8000FFC003FF0000001E
:106DD000001FFFFFFFFF8000000007F00000000021
:106DE0000000000000000000000000001FC00000C4
:106DF0000000000000000000000000000000000093
:106E00000000001FFFFFFFFF8000000000000000E7
:106E10000000000000000000000000000000000072
:106E20000000000000000000000000000000000062
:106E300000000000001FFFFFFFFF800000000000B7
:106E40000000000000000000000000000000000042
:106E50000000000000000000000000000000000032
:106E6000000000000000001FFFFFFFFF8000000087
:106E70000000000000000000000000000000000012
:106E80000000000000000000000000000000000002
:106E90000000000000000000001FFFFFFFFF800057
:106EA00000000000000000000000000000000000E2
:106EB00000000000000000000000000000000000D2
:106EC00000000000000000000000001FFFFFFFFFA7
:106ED0008000000000000000000000000000000032
:106EE00000000000000000000000000000000000A2
:106EF000000000000000000000000000001FFFFF75
:106F0000FFFF800000000000000000000000000003
:106F10000000000000000000000000000000000071
:106F20000000000000000000000000000000001F42
:106F3000FFFFFFFF800000000000000000000000D5
:106F40000000000000000000000000000000000041
:106F50000000000000000000000000000000000031
:106F6000001FFFFFFFFF8000000000000000000086
:106F70000000000000000000000000000000000011
:106F80000000000000000000000000000000000001
:106F90000000001FFFFFFFFF800000000000000056
:106FA00000000000000000000000000000000000E1
:106FB00000000000000000000000000000000000D1
:106FC00000000000001FFFFFFFFF80000000000026
:106FD00000000000000000000000000000000000B1
:106FE00000000000000000000000000000000000A1
:106FF000000000000000001FFFFFFFFFFFFFFFFF7A
:10700000FFFFFFFFFFFFFFFFFFFFFFFFFFFFFFFF90
:10701000FFFFFFFFFFFFFFFFFFFFFFFFFFFFFFFF80
:10702000FFFFFFFFFFFFFFFFFFFFFFFFFFFFFFFF70
:10703000FFFFFFFFFFFFFFFFFFFFFFFFFFFFFFFF60
:1072E000FFFFFFFFFFFFFFFFFFFFFFFFFFFFFF3F6E
:1072F000FFFFFFC7FFFFFFFFFFFFFFFFFFFFFFFFD6
:10730000FFFFFFFFF1FFFFFFFC7FFFFFFFFFFFFF1E
:10731000FFFFFFFFFFFFFFFFFFFFFFFFC003FF8037
:107320001E1FFFFFFFC7FFFF003FFC03FFFFFFFF24
:10733000FFFFFFFFC01FF1FFFFFFFC7FFFFFFFFF0D
:10734000FFFFFFFFFFFFFFFFFFFFFFFFFFFFC00388
:10735000FF801E1FFFFFFFC7FFFE003FFC00FFFF77
:10736000FFFFFFFFFFFFC007F0FFFFFFFC7FFFFFF6
:10737000FFFFFFFFFFFFFFFFFFFFFFFFFFFFFFFF1D
:10738000C003FF801E1FFFFFFFC7FFFE003FFC0082
:107390007FFFFFFFFFFFFFFFC003F1FFFFFFFC7F49
:1073A000FFFFFFFFFFFFFFFFFFFFFFFFFFFFFFFFED
:1073B000FFFFFFC3FF8FFFFFFFFFFFC7FFFE1FFFA2
:1073C000FC383FFFFFFFFFFFFFFFC3C1FFFFFFFFD1
:1073D000FC7FFFFFFFFFFFFFFFFFFFFFFFFFFFFF40
:1073E000FFFFFFFFFF87FF8FFFFFFFFFFFC7FFFECE
:1073F0001FFFFC3C3FFFFFFFFFFFFFFFC3E0FFFF5E
:10740000FFFFFC7FFFFFFFFFFFFFFFFFFFFFFFFF0F
:10741000FFFFFFFFFFFFFF87FF8FFE3C60FF03C6FC
:107420000FFE1FFFFC3C3E03E307F80FCC7FC3F0C9
:10743000F1F03E60FC7E03C7E3FFFFFFFFFFFFFFAD
:10744000FFFFFFFFFFFFFFFFFF87FF8FFE1C407E58
:1074500001C007FE1FFFFC3C3801E003F007807FFE
:10746000C3F871E01C407C7801C7E3FFFFFFFFFF1A
:10747000FFFFFFFFFFFFFFFFFFFFFF0FFF8FFE1C60
:10748000003C01C007FE1FFFFC3C3801E001E007A3
:10749000807FC3F871E01C003C7801C3E3FFFFFF6D
:1074A000FFFFFFFFFFFFFFFFFFFFFFFFFF0FFF805B
:1074B0007E1C1C3C3D8387FE007FFC3C39F0E0E1F4
:1074C000E1C381FFC3F871C3FC1C3C79F1C3C3FF66
:1074D000FFFFFFFFFFFFFFFFFFFFFFFFFFFFFE1F9D
:1074E000FF801E1C3C387FC7C3FE007FFC383FF086
:1074F000E1F0C3E383FFC3F871C3FC3E1C7FF1E3FB
:10750000C7FFFFFFFFFFFFFFFFFFFFFFFFFFFFFFC3
:10751000FE1FFF801E1C3E387FC7C3FE007FFC009D
:107520007FF0E1F0C3E387FFC3F871C1FC3E1C7F2D
:10753000F1E1C7FFFFFFFFFFFFFFFFFFFFFFFFFFBF
:10754000FFFFFC1FFFFE0E1C3E387FC7C3FE1FF867
:107550000C00FE00E1F0C00387FFC3F871E07C3E41
:107560001C7C01E187FFFFFFFFFFFFFFFFFFFFFF25
:10757000FFFFFFFFFC3FFFFF0E1C3E387FC7C3FE2F
:107580001FF00C03F800E1F0C00387FFC3F871E0BF
:107590003C3E1C7801F18FFFFFFFFFFFFFFFFFFF65
:1075A000FFFFFFFFFFFFFC3FFFFF0E1C3E387FC7C2
:1075B000C3FE1FF81C3FF870E1F0C3FF87FFC3F064
:1075C00071F81C3E1C7071F08FFFFFFFFFFFFFFF83
:1075D000FFFFFFFFFFFFFFFFF87FFFFF0E1C3E389E
:1075E0007FC7C3FE1FFFFC3FF0F0E1F0C3FF87FF42
:1075F000C3F0F1FE1C3E1C70F1F00FFFFFFFFFFF18
:10760000FFFFFFFFFFFFFFFFFFFFF87FCFFF0E1C15
:107610003E387FC7C3FE1FFFFC3FF0F0E1F1C3FF20
:1076200087FFC3E0F1FF1C3E1C70F1F80FFFFFFF66
:10763000FFFFFFFFFFFFFFFFFFFFFFFFF07F877EE2
:107640001E1C3E3C3DC7C3FE1FFFFC3FF0E0E0E1D7
:10765000E1FF87FFC381F1DF1C1C3C70E1F81FFFD5
:10766000FFFFFFFFFFFFFFFFFFFFFFFFFFFFF0FF39
:1076700087001E1C3E3C01C7C3FE003FFC3FF000DC
:10768000E001E00387FFC003F1C01C003C7001F87B
:107690001FFFFFFFFFFFFFFFFFFFFFFFFFFFFFFFDA
:1076A000F0FF87003E1C3E3E01C7C3FE003FFC3F8B
:1076B000F800E003F00387FFC007F1C01C007C78EE
:1076C00001FC1FFFFFFFFFFFFFFFFFFFFFFFFFFFAB
:1076D000FFFFF1FFCF807E3E7E3F03C7E7FF003F05
:1076E000FE7FFC19E107F807CFFFE03FF1E07C20C7
:1076F000FC7C19FC3FFFFFFFFFFFFFFFFFFFFFFFC9
:10770000FFFFFFFFFFFFFFFFFFFFFFFFFFFFFFFF89
:10771000FFFFFFFFFFFFE1FFFFFFFFFFFFFFFFFF97
:10772000FC3FFFFFFFFC3FFFFFFFFFFFFFFFFFFFEF
:10773000FFFFFFFFFFFFFFFFFFFFFFFFFFFFFFFF59
:10774000FFFFFFFFFFFFFFFFE1FFFFFFFFFFFFFF67
:10775000FFFFFC3FFFFFFFFC3FFFFFFFFFFFFFFFBF
:10776000FFFFFFFFFFFFFFFFFFFFFFFFFFFFFFFF29
:10777000FFFFFFFFFFFFFFFFFFFFE1FFFFFFFFFF37
:10778000FFFFFFFFFC3FFFFFFFFC7FFFFFFFFFFF4F
:10779000FFFFFFFFFFFFFFFFFFFFFFFFFFFFFFFFF9
:1077A000FFFFFFFFFFFFFFFFFFFFFFFFE1FFFFFF07
:1077B000FFFFFFFFFFFFFC3FFFFFFFF87FFFFFFF23
:1077C000FFFFFFFFFFFFFFFFFFFFFFFFFFFFFFFFC9
:1077D000FFFFFFFFFFFFFFFFFFFFFFFFFFFFE1FFD7
